{
  "_format": "hh-sol-artifact-1",
  "contractName": "MyEpicGame",
  "sourceName": "contracts/MyEpicGame.sol",
  "abi": [
    {
      "inputs": [
        {
          "internalType": "string[]",
          "name": "characterNames",
          "type": "string[]"
        },
        {
          "internalType": "string[]",
          "name": "characterImageURIs",
          "type": "string[]"
        },
        {
          "internalType": "uint256[]",
          "name": "characterHp",
          "type": "uint256[]"
        },
        {
          "internalType": "uint256[]",
          "name": "characterAttackDmg",
          "type": "uint256[]"
        },
        {
          "internalType": "string",
          "name": "bossName",
          "type": "string"
        },
        {
          "internalType": "string",
          "name": "bossImageURI",
          "type": "string"
        },
        {
          "internalType": "uint256",
          "name": "bossHp",
          "type": "uint256"
        },
        {
          "internalType": "uint256",
          "name": "bossAttackDamage",
          "type": "uint256"
        }
      ],
      "stateMutability": "nonpayable",
      "type": "constructor"
    },
    {
      "anonymous": false,
      "inputs": [
        {
          "indexed": true,
          "internalType": "address",
          "name": "owner",
          "type": "address"
        },
        {
          "indexed": true,
          "internalType": "address",
          "name": "approved",
          "type": "address"
        },
        {
          "indexed": true,
          "internalType": "uint256",
          "name": "tokenId",
          "type": "uint256"
        }
      ],
      "name": "Approval",
      "type": "event"
    },
    {
      "anonymous": false,
      "inputs": [
        {
          "indexed": true,
          "internalType": "address",
          "name": "owner",
          "type": "address"
        },
        {
          "indexed": true,
          "internalType": "address",
          "name": "operator",
          "type": "address"
        },
        {
          "indexed": false,
          "internalType": "bool",
          "name": "approved",
          "type": "bool"
        }
      ],
      "name": "ApprovalForAll",
      "type": "event"
    },
    {
      "anonymous": false,
      "inputs": [
        {
          "indexed": false,
          "internalType": "uint256",
          "name": "newBossHp",
          "type": "uint256"
        },
        {
          "indexed": false,
          "internalType": "uint256",
          "name": "newPlayerHp",
          "type": "uint256"
        }
      ],
      "name": "AttackComplete",
      "type": "event"
    },
    {
      "anonymous": false,
      "inputs": [
        {
          "indexed": false,
          "internalType": "address",
          "name": "sender",
          "type": "address"
        },
        {
          "indexed": false,
          "internalType": "uint256",
          "name": "tokenId",
          "type": "uint256"
        },
        {
          "indexed": false,
          "internalType": "uint256",
          "name": "characterIndex",
          "type": "uint256"
        }
      ],
      "name": "CharacterNFTMinted",
      "type": "event"
    },
    {
      "anonymous": false,
      "inputs": [
        {
          "indexed": true,
          "internalType": "address",
          "name": "from",
          "type": "address"
        },
        {
          "indexed": true,
          "internalType": "address",
          "name": "to",
          "type": "address"
        },
        {
          "indexed": true,
          "internalType": "uint256",
          "name": "tokenId",
          "type": "uint256"
        }
      ],
      "name": "Transfer",
      "type": "event"
    },
    {
      "inputs": [
        {
          "internalType": "address",
          "name": "to",
          "type": "address"
        },
        {
          "internalType": "uint256",
          "name": "tokenId",
          "type": "uint256"
        }
      ],
      "name": "approve",
      "outputs": [],
      "stateMutability": "nonpayable",
      "type": "function"
    },
    {
      "inputs": [],
      "name": "attackBoss",
      "outputs": [],
      "stateMutability": "nonpayable",
      "type": "function"
    },
    {
      "inputs": [
        {
          "internalType": "address",
          "name": "owner",
          "type": "address"
        }
      ],
      "name": "balanceOf",
      "outputs": [
        {
          "internalType": "uint256",
          "name": "",
          "type": "uint256"
        }
      ],
      "stateMutability": "view",
      "type": "function"
    },
    {
      "inputs": [],
      "name": "bigBoss",
      "outputs": [
        {
          "internalType": "string",
          "name": "name",
          "type": "string"
        },
        {
          "internalType": "string",
          "name": "imageURI",
          "type": "string"
        },
        {
          "internalType": "uint256",
          "name": "hp",
          "type": "uint256"
        },
        {
          "internalType": "uint256",
          "name": "maxHp",
          "type": "uint256"
        },
        {
          "internalType": "uint256",
          "name": "attackDamage",
          "type": "uint256"
        }
      ],
      "stateMutability": "view",
      "type": "function"
    },
    {
      "inputs": [],
      "name": "checkIfUserHasNFT",
      "outputs": [
        {
          "components": [
            {
              "internalType": "uint256",
              "name": "characterIndex",
              "type": "uint256"
            },
            {
              "internalType": "string",
              "name": "name",
              "type": "string"
            },
            {
              "internalType": "string",
              "name": "imageURI",
              "type": "string"
            },
            {
              "internalType": "uint256",
              "name": "hp",
              "type": "uint256"
            },
            {
              "internalType": "uint256",
              "name": "maxHp",
              "type": "uint256"
            },
            {
              "internalType": "uint256",
              "name": "attackDamage",
              "type": "uint256"
            }
          ],
          "internalType": "struct MyEpicGame.CharacterAttributes",
          "name": "",
          "type": "tuple"
        }
      ],
      "stateMutability": "view",
      "type": "function"
    },
    {
      "inputs": [],
      "name": "getAllDefaultCharacters",
      "outputs": [
        {
          "components": [
            {
              "internalType": "uint256",
              "name": "characterIndex",
              "type": "uint256"
            },
            {
              "internalType": "string",
              "name": "name",
              "type": "string"
            },
            {
              "internalType": "string",
              "name": "imageURI",
              "type": "string"
            },
            {
              "internalType": "uint256",
              "name": "hp",
              "type": "uint256"
            },
            {
              "internalType": "uint256",
              "name": "maxHp",
              "type": "uint256"
            },
            {
              "internalType": "uint256",
              "name": "attackDamage",
              "type": "uint256"
            }
          ],
          "internalType": "struct MyEpicGame.CharacterAttributes[]",
          "name": "",
          "type": "tuple[]"
        }
      ],
      "stateMutability": "view",
      "type": "function"
    },
    {
      "inputs": [
        {
          "internalType": "uint256",
          "name": "tokenId",
          "type": "uint256"
        }
      ],
      "name": "getApproved",
      "outputs": [
        {
          "internalType": "address",
          "name": "",
          "type": "address"
        }
      ],
      "stateMutability": "view",
      "type": "function"
    },
    {
      "inputs": [],
      "name": "getBisBoss",
      "outputs": [
        {
          "components": [
            {
              "internalType": "string",
              "name": "name",
              "type": "string"
            },
            {
              "internalType": "string",
              "name": "imageURI",
              "type": "string"
            },
            {
              "internalType": "uint256",
              "name": "hp",
              "type": "uint256"
            },
            {
              "internalType": "uint256",
              "name": "maxHp",
              "type": "uint256"
            },
            {
              "internalType": "uint256",
              "name": "attackDamage",
              "type": "uint256"
            }
          ],
          "internalType": "struct MyEpicGame.BigBoss",
          "name": "",
          "type": "tuple"
        }
      ],
      "stateMutability": "view",
      "type": "function"
    },
    {
      "inputs": [
        {
          "internalType": "address",
          "name": "owner",
          "type": "address"
        },
        {
          "internalType": "address",
          "name": "operator",
          "type": "address"
        }
      ],
      "name": "isApprovedForAll",
      "outputs": [
        {
          "internalType": "bool",
          "name": "",
          "type": "bool"
        }
      ],
      "stateMutability": "view",
      "type": "function"
    },
    {
      "inputs": [
        {
          "internalType": "uint256",
          "name": "_characterIndex",
          "type": "uint256"
        }
      ],
      "name": "mintCharacterNFT",
      "outputs": [],
      "stateMutability": "nonpayable",
      "type": "function"
    },
    {
      "inputs": [],
      "name": "name",
      "outputs": [
        {
          "internalType": "string",
          "name": "",
          "type": "string"
        }
      ],
      "stateMutability": "view",
      "type": "function"
    },
    {
      "inputs": [
        {
          "internalType": "uint256",
          "name": "",
          "type": "uint256"
        }
      ],
      "name": "nftHolderAttributes",
      "outputs": [
        {
          "internalType": "uint256",
          "name": "characterIndex",
          "type": "uint256"
        },
        {
          "internalType": "string",
          "name": "name",
          "type": "string"
        },
        {
          "internalType": "string",
          "name": "imageURI",
          "type": "string"
        },
        {
          "internalType": "uint256",
          "name": "hp",
          "type": "uint256"
        },
        {
          "internalType": "uint256",
          "name": "maxHp",
          "type": "uint256"
        },
        {
          "internalType": "uint256",
          "name": "attackDamage",
          "type": "uint256"
        }
      ],
      "stateMutability": "view",
      "type": "function"
    },
    {
      "inputs": [
        {
          "internalType": "address",
          "name": "",
          "type": "address"
        }
      ],
      "name": "nftHolders",
      "outputs": [
        {
          "internalType": "uint256",
          "name": "",
          "type": "uint256"
        }
      ],
      "stateMutability": "view",
      "type": "function"
    },
    {
      "inputs": [
        {
          "internalType": "uint256",
          "name": "tokenId",
          "type": "uint256"
        }
      ],
      "name": "ownerOf",
      "outputs": [
        {
          "internalType": "address",
          "name": "",
          "type": "address"
        }
      ],
      "stateMutability": "view",
      "type": "function"
    },
    {
      "inputs": [
        {
          "internalType": "address",
          "name": "from",
          "type": "address"
        },
        {
          "internalType": "address",
          "name": "to",
          "type": "address"
        },
        {
          "internalType": "uint256",
          "name": "tokenId",
          "type": "uint256"
        }
      ],
      "name": "safeTransferFrom",
      "outputs": [],
      "stateMutability": "nonpayable",
      "type": "function"
    },
    {
      "inputs": [
        {
          "internalType": "address",
          "name": "from",
          "type": "address"
        },
        {
          "internalType": "address",
          "name": "to",
          "type": "address"
        },
        {
          "internalType": "uint256",
          "name": "tokenId",
          "type": "uint256"
        },
        {
          "internalType": "bytes",
          "name": "_data",
          "type": "bytes"
        }
      ],
      "name": "safeTransferFrom",
      "outputs": [],
      "stateMutability": "nonpayable",
      "type": "function"
    },
    {
      "inputs": [
        {
          "internalType": "address",
          "name": "operator",
          "type": "address"
        },
        {
          "internalType": "bool",
          "name": "approved",
          "type": "bool"
        }
      ],
      "name": "setApprovalForAll",
      "outputs": [],
      "stateMutability": "nonpayable",
      "type": "function"
    },
    {
      "inputs": [
        {
          "internalType": "bytes4",
          "name": "interfaceId",
          "type": "bytes4"
        }
      ],
      "name": "supportsInterface",
      "outputs": [
        {
          "internalType": "bool",
          "name": "",
          "type": "bool"
        }
      ],
      "stateMutability": "view",
      "type": "function"
    },
    {
      "inputs": [],
      "name": "symbol",
      "outputs": [
        {
          "internalType": "string",
          "name": "",
          "type": "string"
        }
      ],
      "stateMutability": "view",
      "type": "function"
    },
    {
      "inputs": [
        {
          "internalType": "uint256",
          "name": "_tokenId",
          "type": "uint256"
        }
      ],
      "name": "tokenURI",
      "outputs": [
        {
          "internalType": "string",
          "name": "",
          "type": "string"
        }
      ],
      "stateMutability": "view",
      "type": "function"
    },
    {
      "inputs": [
        {
          "internalType": "address",
          "name": "from",
          "type": "address"
        },
        {
          "internalType": "address",
          "name": "to",
          "type": "address"
        },
        {
          "internalType": "uint256",
          "name": "tokenId",
          "type": "uint256"
        }
      ],
      "name": "transferFrom",
      "outputs": [],
      "stateMutability": "nonpayable",
      "type": "function"
    }
  ],
  "bytecode": "0x60806040523480156200001157600080fd5b506040516200561d3803806200561d833981810160405281019062000037919062000a85565b6040518060400160405280600881526020017f4f6e6550696563650000000000000000000000000000000000000000000000008152506040518060400160405280600881526020017f4f4e4550494543450000000000000000000000000000000000000000000000008152508160009080519060200190620000bb929190620007ed565b508060019080519060200190620000d4929190620007ed565b5050506040518060a0016040528085815260200184815260200183815260200183815260200182815250600760008201518160000190805190602001906200011e929190620007ed565b5060208201518160010190805190602001906200013d929190620007ed565b50604082015181600201556060820151816003015560808201518160040155905050620002c06040518060600160405280602a8152602001620055f3602a9139600760000180546200018f9062000e08565b80601f0160208091040260200160405190810160405280929190818152602001828054620001bd9062000e08565b80156200020e5780601f10620001e2576101008083540402835291602001916200020e565b820191906000526020600020905b815481529060010190602001808311620001f057829003601f168201915b5050505050600760020154600760010180546200022b9062000e08565b80601f0160208091040260200160405190810160405280929190818152602001828054620002599062000e08565b8015620002aa5780601f106200027e57610100808354040283529160200191620002aa565b820191906000526020600020905b8154815290600101906020018083116200028c57829003601f168201915b50505050506200070260201b62001a451760201c565b60005b8851811015620006dc5760066040518060c001604052808381526020018b84815181106200031a577f4e487b7100000000000000000000000000000000000000000000000000000000600052603260045260246000fd5b602002602001015181526020018a848151811062000361577f4e487b7100000000000000000000000000000000000000000000000000000000600052603260045260246000fd5b60200260200101518152602001898481518110620003a8577f4e487b7100000000000000000000000000000000000000000000000000000000600052603260045260246000fd5b60200260200101518152602001898481518110620003ef577f4e487b7100000000000000000000000000000000000000000000000000000000600052603260045260246000fd5b6020026020010151815260200188848151811062000436577f4e487b7100000000000000000000000000000000000000000000000000000000600052603260045260246000fd5b6020026020010151815250908060018154018082558091505060019003906000526020600020906006020160009091909190915060008201518160000155602082015181600101908051906020019062000492929190620007ed565b506040820151816002019080519060200190620004b1929190620007ed565b50606082015181600301556080820151816004015560a0820151816005015550506000600682815481106200050f577f4e487b7100000000000000000000000000000000000000000000000000000000600052603260045260246000fd5b90600052602060002090600602016040518060c001604052908160008201548152602001600182018054620005449062000e08565b80601f0160208091040260200160405190810160405280929190818152602001828054620005729062000e08565b8015620005c35780601f106200059757610100808354040283529160200191620005c3565b820191906000526020600020905b815481529060010190602001808311620005a557829003601f168201915b50505050508152602001600282018054620005de9062000e08565b80601f01602080910402602001604051908101604052809291908181526020018280546200060c9062000e08565b80156200065d5780601f1062000631576101008083540402835291602001916200065d565b820191906000526020600020905b8154815290600101906020018083116200063f57829003601f168201915b5050505050815260200160038201548152602001600482015481526020016005820154815250509050620006c4604051806060016040528060258152602001620055ce602591398260200151836060015184604001516200070260201b62001a451760201c565b50600181620006d4919062000d6b565b9050620002c3565b50620006f4600c620007ae60201b62001ae71760201c565b505050505050505062000f2c565b620007a8848484846040516024016200071f949392919062000c30565b6040516020818303038152906040527f8d142cdd000000000000000000000000000000000000000000000000000000007bffffffffffffffffffffffffffffffffffffffffffffffffffffffff19166020820180517bffffffffffffffffffffffffffffffffffffffffffffffffffffffff8381831617835250505050620007c460201b60201c565b50505050565b6001816000016000828254019250508190555050565b60008151905060006a636f6e736f6c652e6c6f679050602083016000808483855afa5050505050565b828054620007fb9062000e08565b90600052602060002090601f0160209004810192826200081f57600085556200086b565b82601f106200083a57805160ff19168380011785556200086b565b828001600101855582156200086b579182015b828111156200086a5782518255916020019190600101906200084d565b5b5090506200087a91906200087e565b5090565b5b80821115620008995760008160009055506001016200087f565b5090565b6000620008b4620008ae8462000cbb565b62000c92565b90508083825260208201905082856020860282011115620008d457600080fd5b60005b858110156200092357815167ffffffffffffffff811115620008f857600080fd5b80860162000907898262000a41565b85526020850194506020840193505050600181019050620008d7565b5050509392505050565b6000620009446200093e8462000cea565b62000c92565b905080838252602082019050828560208602820111156200096457600080fd5b60005b858110156200099857816200097d888262000a6e565b84526020840193506020830192505060018101905062000967565b5050509392505050565b6000620009b9620009b38462000d19565b62000c92565b905082815260208101848484011115620009d257600080fd5b620009df84828562000dd2565b509392505050565b600082601f830112620009f957600080fd5b815162000a0b8482602086016200089d565b91505092915050565b600082601f83011262000a2657600080fd5b815162000a388482602086016200092d565b91505092915050565b600082601f83011262000a5357600080fd5b815162000a65848260208601620009a2565b91505092915050565b60008151905062000a7f8162000f12565b92915050565b600080600080600080600080610100898b03121562000aa357600080fd5b600089015167ffffffffffffffff81111562000abe57600080fd5b62000acc8b828c01620009e7565b985050602089015167ffffffffffffffff81111562000aea57600080fd5b62000af88b828c01620009e7565b975050604089015167ffffffffffffffff81111562000b1657600080fd5b62000b248b828c0162000a14565b965050606089015167ffffffffffffffff81111562000b4257600080fd5b62000b508b828c0162000a14565b955050608089015167ffffffffffffffff81111562000b6e57600080fd5b62000b7c8b828c0162000a41565b94505060a089015167ffffffffffffffff81111562000b9a57600080fd5b62000ba88b828c0162000a41565b93505060c062000bbb8b828c0162000a6e565b92505060e062000bce8b828c0162000a6e565b9150509295985092959890939650565b600062000beb8262000d4f565b62000bf7818562000d5a565b935062000c0981856020860162000dd2565b62000c148162000f01565b840191505092915050565b62000c2a8162000dc8565b82525050565b6000608082019050818103600083015262000c4c818762000bde565b9050818103602083015262000c62818662000bde565b905062000c73604083018562000c1f565b818103606083015262000c87818462000bde565b905095945050505050565b600062000c9e62000cb1565b905062000cac828262000e3e565b919050565b6000604051905090565b600067ffffffffffffffff82111562000cd95762000cd862000ed2565b5b602082029050602081019050919050565b600067ffffffffffffffff82111562000d085762000d0762000ed2565b5b602082029050602081019050919050565b600067ffffffffffffffff82111562000d375762000d3662000ed2565b5b62000d428262000f01565b9050602081019050919050565b600081519050919050565b600082825260208201905092915050565b600062000d788262000dc8565b915062000d858362000dc8565b9250827fffffffffffffffffffffffffffffffffffffffffffffffffffffffffffffffff0382111562000dbd5762000dbc62000e74565b5b828201905092915050565b6000819050919050565b60005b8381101562000df257808201518184015260208101905062000dd5565b8381111562000e02576000848401525b50505050565b6000600282049050600182168062000e2157607f821691505b6020821081141562000e385762000e3762000ea3565b5b50919050565b62000e498262000f01565b810181811067ffffffffffffffff8211171562000e6b5762000e6a62000ed2565b5b80604052505050565b7f4e487b7100000000000000000000000000000000000000000000000000000000600052601160045260246000fd5b7f4e487b7100000000000000000000000000000000000000000000000000000000600052602260045260246000fd5b7f4e487b7100000000000000000000000000000000000000000000000000000000600052604160045260246000fd5b6000601f19601f8301169050919050565b62000f1d8162000dc8565b811462000f2957600080fd5b50565b6146928062000f3c6000396000f3fe608060405234801561001057600080fd5b50600436106101375760003560e01c806395d89b41116100b8578063b953084e1161007c578063b953084e14610369578063c87b56dd14610387578063c8cf27f4146103b7578063d4f24c5b146103d5578063e985e9c5146103df578063f8b81ef71461040f57610137565b806395d89b41146102bc57806398da4c95146102da578063a22cb4651461030f578063a9c326791461032b578063b88d4fde1461034d57610137565b806334b13046116100ff57806334b13046146101f257806342842e0e146102105780636352211e1461022c57806370a082311461025c5780637df124a11461028c57610137565b806301ffc9a71461013c57806306fdde031461016c578063081812fc1461018a578063095ea7b3146101ba57806323b872dd146101d6575b600080fd5b61015660048036038101906101519190612e16565b61042b565b604051610163919061367b565b60405180910390f35b61017461050d565b6040516101819190613696565b60405180910390f35b6101a4600480360381019061019f9190612e68565b61059f565b6040516101b191906135bb565b60405180910390f35b6101d460048036038101906101cf9190612dda565b610624565b005b6101f060048036038101906101eb9190612cd4565b61073c565b005b6101fa61079c565b60405161020791906139c1565b60405180910390f35b61022a60048036038101906102259190612cd4565b6108f8565b005b61024660048036038101906102419190612e68565b610918565b60405161025391906135bb565b60405180910390f35b61027660048036038101906102719190612c6f565b6109ca565b6040516102839190613a05565b60405180910390f35b6102a660048036038101906102a19190612c6f565b610a82565b6040516102b39190613a05565b60405180910390f35b6102c4610a9a565b6040516102d19190613696565b60405180910390f35b6102f460048036038101906102ef9190612e68565b610b2c565b60405161030696959493929190613a20565b60405180910390f35b61032960048036038101906103249190612d9e565b610c78565b005b610333610c8e565b604051610344959493929190613712565b60405180910390f35b61036760048036038101906103629190612d23565b610dc2565b005b610371610e24565b60405161037e9190613659565b60405180910390f35b6103a1600480360381019061039c9190612e68565b610fcf565b6040516103ae9190613696565b60405180910390f35b6103bf6111ea565b6040516103cc91906139e3565b60405180910390f35b6103dd6113c2565b005b6103f960048036038101906103f49190612c98565b6115bd565b604051610406919061367b565b60405180910390f35b61042960048036038101906104249190612e68565b611651565b005b60007f80ac58cd000000000000000000000000000000000000000000000000000000007bffffffffffffffffffffffffffffffffffffffffffffffffffffffff1916827bffffffffffffffffffffffffffffffffffffffffffffffffffffffff191614806104f657507f5b5e139f000000000000000000000000000000000000000000000000000000007bffffffffffffffffffffffffffffffffffffffffffffffffffffffff1916827bffffffffffffffffffffffffffffffffffffffffffffffffffffffff1916145b80610506575061050582611afd565b5b9050919050565b60606000805461051c90613d66565b80601f016020809104026020016040519081016040528092919081815260200182805461054890613d66565b80156105955780601f1061056a57610100808354040283529160200191610595565b820191906000526020600020905b81548152906001019060200180831161057857829003601f168201915b5050505050905090565b60006105aa82611b67565b6105e9576040517f08c379a00000000000000000000000000000000000000000000000000000000081526004016105e090613961565b60405180910390fd5b6004600083815260200190815260200160002060009054906101000a900473ffffffffffffffffffffffffffffffffffffffff169050919050565b600061062f82610918565b90508073ffffffffffffffffffffffffffffffffffffffff168373ffffffffffffffffffffffffffffffffffffffff1614156106a0576040517f08c379a000000000000000000000000000000000000000000000000000000000815260040161069790613981565b60405180910390fd5b8073ffffffffffffffffffffffffffffffffffffffff166106bf611bd3565b73ffffffffffffffffffffffffffffffffffffffff1614806106ee57506106ed816106e8611bd3565b6115bd565b5b61072d576040517f08c379a0000000000000000000000000000000000000000000000000000000008152600401610724906138c1565b60405180910390fd5b6107378383611bdb565b505050565b61074d610747611bd3565b82611c94565b61078c576040517f08c379a0000000000000000000000000000000000000000000000000000000008152600401610783906139a1565b60405180910390fd5b610797838383611d72565b505050565b6107a4612a96565b60076040518060a00160405290816000820180546107c190613d66565b80601f01602080910402602001604051908101604052809291908181526020018280546107ed90613d66565b801561083a5780601f1061080f5761010080835404028352916020019161083a565b820191906000526020600020905b81548152906001019060200180831161081d57829003601f168201915b5050505050815260200160018201805461085390613d66565b80601f016020809104026020016040519081016040528092919081815260200182805461087f90613d66565b80156108cc5780601f106108a1576101008083540402835291602001916108cc565b820191906000526020600020905b8154815290600101906020018083116108af57829003601f168201915b505050505081526020016002820154815260200160038201548152602001600482015481525050905090565b61091383838360405180602001604052806000815250610dc2565b505050565b6000806002600084815260200190815260200160002060009054906101000a900473ffffffffffffffffffffffffffffffffffffffff169050600073ffffffffffffffffffffffffffffffffffffffff168173ffffffffffffffffffffffffffffffffffffffff1614156109c1576040517f08c379a00000000000000000000000000000000000000000000000000000000081526004016109b890613901565b60405180910390fd5b80915050919050565b60008073ffffffffffffffffffffffffffffffffffffffff168273ffffffffffffffffffffffffffffffffffffffff161415610a3b576040517f08c379a0000000000000000000000000000000000000000000000000000000008152600401610a32906138e1565b60405180910390fd5b600360008373ffffffffffffffffffffffffffffffffffffffff1673ffffffffffffffffffffffffffffffffffffffff168152602001908152602001600020549050919050565b600e6020528060005260406000206000915090505481565b606060018054610aa990613d66565b80601f0160208091040260200160405190810160405280929190818152602001828054610ad590613d66565b8015610b225780601f10610af757610100808354040283529160200191610b22565b820191906000526020600020905b815481529060010190602001808311610b0557829003601f168201915b5050505050905090565b600d602052806000526040600020600091509050806000015490806001018054610b5590613d66565b80601f0160208091040260200160405190810160405280929190818152602001828054610b8190613d66565b8015610bce5780601f10610ba357610100808354040283529160200191610bce565b820191906000526020600020905b815481529060010190602001808311610bb157829003601f168201915b505050505090806002018054610be390613d66565b80601f0160208091040260200160405190810160405280929190818152602001828054610c0f90613d66565b8015610c5c5780601f10610c3157610100808354040283529160200191610c5c565b820191906000526020600020905b815481529060010190602001808311610c3f57829003601f168201915b5050505050908060030154908060040154908060050154905086565b610c8a610c83611bd3565b8383611fd9565b5050565b6007806000018054610c9f90613d66565b80601f0160208091040260200160405190810160405280929190818152602001828054610ccb90613d66565b8015610d185780601f10610ced57610100808354040283529160200191610d18565b820191906000526020600020905b815481529060010190602001808311610cfb57829003601f168201915b505050505090806001018054610d2d90613d66565b80601f0160208091040260200160405190810160405280929190818152602001828054610d5990613d66565b8015610da65780601f10610d7b57610100808354040283529160200191610da6565b820191906000526020600020905b815481529060010190602001808311610d8957829003601f168201915b5050505050908060020154908060030154908060040154905085565b610dd3610dcd611bd3565b83611c94565b610e12576040517f08c379a0000000000000000000000000000000000000000000000000000000008152600401610e09906139a1565b60405180910390fd5b610e1e84848484612146565b50505050565b60606006805480602002602001604051908101604052809291908181526020016000905b82821015610fc657838290600052602060002090600602016040518060c001604052908160008201548152602001600182018054610e8590613d66565b80601f0160208091040260200160405190810160405280929190818152602001828054610eb190613d66565b8015610efe5780601f10610ed357610100808354040283529160200191610efe565b820191906000526020600020905b815481529060010190602001808311610ee157829003601f168201915b50505050508152602001600282018054610f1790613d66565b80601f0160208091040260200160405190810160405280929190818152602001828054610f4390613d66565b8015610f905780601f10610f6557610100808354040283529160200191610f90565b820191906000526020600020905b815481529060010190602001808311610f7357829003601f168201915b50505050508152602001600382015481526020016004820154815260200160058201548152505081526020019060010190610e48565b50505050905090565b60606000600d60008481526020019081526020016000206040518060c00160405290816000820154815260200160018201805461100b90613d66565b80601f016020809104026020016040519081016040528092919081815260200182805461103790613d66565b80156110845780601f1061105957610100808354040283529160200191611084565b820191906000526020600020905b81548152906001019060200180831161106757829003601f168201915b5050505050815260200160028201805461109d90613d66565b80601f01602080910402602001604051908101604052809291908181526020018280546110c990613d66565b80156111165780601f106110eb57610100808354040283529160200191611116565b820191906000526020600020905b8154815290600101906020018083116110f957829003601f168201915b5050505050815260200160038201548152602001600482015481526020016005820154815250509050600061114e82606001516121a2565b9050600061115f83608001516121a2565b905060006111708460a001516121a2565b905060006111b68560200151611185896121a2565b87604001518787876040516020016111a2969594939291906134f4565b60405160208183030381529060405261234f565b90506000816040516020016111cb9190613599565b6040516020818303038152906040529050809650505050505050919050565b6111f2612ac5565b6000600e60003373ffffffffffffffffffffffffffffffffffffffff1673ffffffffffffffffffffffffffffffffffffffff16815260200190815260200160002054905060008111156113b157600d60008281526020019081526020016000206040518060c00160405290816000820154815260200160018201805461127790613d66565b80601f01602080910402602001604051908101604052809291908181526020018280546112a390613d66565b80156112f05780601f106112c5576101008083540402835291602001916112f0565b820191906000526020600020905b8154815290600101906020018083116112d357829003601f168201915b5050505050815260200160028201805461130990613d66565b80601f016020809104026020016040519081016040528092919081815260200182805461133590613d66565b80156113825780601f1061135757610100808354040283529160200191611382565b820191906000526020600020905b81548152906001019060200180831161136557829003601f168201915b5050505050815260200160038201548152602001600482015481526020016005820154815250509150506113bf565b6113b9612ac5565b80925050505b90565b6000600e60003373ffffffffffffffffffffffffffffffffffffffff1673ffffffffffffffffffffffffffffffffffffffff1681526020019081526020016000205490506000600d600083815260200190815260200160002090506000816003015411611464576040517f08c379a000000000000000000000000000000000000000000000000000000000815260040161145b90613921565b60405180910390fd5b6000600760020154116114ac576040517f08c379a00000000000000000000000000000000000000000000000000000000081526004016114a390613821565b60405180910390fd5b806005015460076002015410156114cd5760006007600201819055506114ec565b80600501546007600201546114e29190613c7c565b6007600201819055505b6007600401548160030154101561150c576000816003018190555061152a565b60076004015481600301546115219190613c7c565b81600301819055505b6115516040518060600160405280602581526020016145a26025913960076002015461250d565b61157760405180606001604052806028815260200161460760289139826003015461250d565b7f838ab28464562786a6c4ab2311964b82fa60bd9b14aa7e856af1f3f18d41a41460076002015482600301546040516115b1929190613a8f565b60405180910390a15050565b6000600560008473ffffffffffffffffffffffffffffffffffffffff1673ffffffffffffffffffffffffffffffffffffffff16815260200190815260200160002060008373ffffffffffffffffffffffffffffffffffffffff1673ffffffffffffffffffffffffffffffffffffffff16815260200190815260200160002060009054906101000a900460ff16905092915050565b600061165d600c6125a9565b905061166933826125b7565b6040518060c00160405280838152602001600684815481106116b4577f4e487b7100000000000000000000000000000000000000000000000000000000600052603260045260246000fd5b906000526020600020906006020160010180546116d090613d66565b80601f01602080910402602001604051908101604052809291908181526020018280546116fc90613d66565b80156117495780601f1061171e57610100808354040283529160200191611749565b820191906000526020600020905b81548152906001019060200180831161172c57829003601f168201915b505050505081526020016006848154811061178d577f4e487b7100000000000000000000000000000000000000000000000000000000600052603260045260246000fd5b906000526020600020906006020160020180546117a990613d66565b80601f01602080910402602001604051908101604052809291908181526020018280546117d590613d66565b80156118225780601f106117f757610100808354040283529160200191611822565b820191906000526020600020905b81548152906001019060200180831161180557829003601f168201915b5050505050815260200160068481548110611866577f4e487b7100000000000000000000000000000000000000000000000000000000600052603260045260246000fd5b9060005260206000209060060201600301548152602001600684815481106118b7577f4e487b7100000000000000000000000000000000000000000000000000000000600052603260045260246000fd5b906000526020600020906006020160040154815260200160068481548110611908577f4e487b7100000000000000000000000000000000000000000000000000000000600052603260045260246000fd5b906000526020600020906006020160050154815250600d6000838152602001908152602001600020600082015181600001556020820151816001019080519060200190611956929190612afb565b506040820151816002019080519060200190611973929190612afb565b50606082015181600301556080820151816004015560a082015181600501559050506119b86040518060600160405280602e815260200161462f602e913982846125d5565b80600e60003373ffffffffffffffffffffffffffffffffffffffff1673ffffffffffffffffffffffffffffffffffffffff16815260200190815260200160002081905550611a06600c611ae7565b7f4bc303fd457a97b4691b9af582ce71868a3d258638c8d4f8c60988a0f0bfb8cd338284604051611a3993929190613622565b60405180910390a15050565b611ae184848484604051602401611a5f94939291906136b8565b6040516020818303038152906040527f8d142cdd000000000000000000000000000000000000000000000000000000007bffffffffffffffffffffffffffffffffffffffffffffffffffffffff19166020820180517bffffffffffffffffffffffffffffffffffffffffffffffffffffffff8381831617835250505050612674565b50505050565b6001816000016000828254019250508190555050565b60007f01ffc9a7000000000000000000000000000000000000000000000000000000007bffffffffffffffffffffffffffffffffffffffffffffffffffffffff1916827bffffffffffffffffffffffffffffffffffffffffffffffffffffffff1916149050919050565b60008073ffffffffffffffffffffffffffffffffffffffff166002600084815260200190815260200160002060009054906101000a900473ffffffffffffffffffffffffffffffffffffffff1673ffffffffffffffffffffffffffffffffffffffff1614159050919050565b600033905090565b816004600083815260200190815260200160002060006101000a81548173ffffffffffffffffffffffffffffffffffffffff021916908373ffffffffffffffffffffffffffffffffffffffff160217905550808273ffffffffffffffffffffffffffffffffffffffff16611c4e83610918565b73ffffffffffffffffffffffffffffffffffffffff167f8c5be1e5ebec7d5bd14f71427d1e84f3dd0314c0f7b2291e5b200ac8c7c3b92560405160405180910390a45050565b6000611c9f82611b67565b611cde576040517f08c379a0000000000000000000000000000000000000000000000000000000008152600401611cd5906138a1565b60405180910390fd5b6000611ce983610918565b90508073ffffffffffffffffffffffffffffffffffffffff168473ffffffffffffffffffffffffffffffffffffffff161480611d2b5750611d2a81856115bd565b5b80611d6957508373ffffffffffffffffffffffffffffffffffffffff16611d518461059f565b73ffffffffffffffffffffffffffffffffffffffff16145b91505092915050565b8273ffffffffffffffffffffffffffffffffffffffff16611d9282610918565b73ffffffffffffffffffffffffffffffffffffffff1614611de8576040517f08c379a0000000000000000000000000000000000000000000000000000000008152600401611ddf90613801565b60405180910390fd5b600073ffffffffffffffffffffffffffffffffffffffff168273ffffffffffffffffffffffffffffffffffffffff161415611e58576040517f08c379a0000000000000000000000000000000000000000000000000000000008152600401611e4f90613861565b60405180910390fd5b611e6383838361269d565b611e6e600082611bdb565b6001600360008573ffffffffffffffffffffffffffffffffffffffff1673ffffffffffffffffffffffffffffffffffffffff1681526020019081526020016000206000828254611ebe9190613c7c565b925050819055506001600360008473ffffffffffffffffffffffffffffffffffffffff1673ffffffffffffffffffffffffffffffffffffffff1681526020019081526020016000206000828254611f159190613b9b565b92505081905550816002600083815260200190815260200160002060006101000a81548173ffffffffffffffffffffffffffffffffffffffff021916908373ffffffffffffffffffffffffffffffffffffffff160217905550808273ffffffffffffffffffffffffffffffffffffffff168473ffffffffffffffffffffffffffffffffffffffff167fddf252ad1be2c89b69c2b068fc378daa952ba7f163c4a11628f55a4df523b3ef60405160405180910390a4611fd48383836126a2565b505050565b8173ffffffffffffffffffffffffffffffffffffffff168373ffffffffffffffffffffffffffffffffffffffff161415612048576040517f08c379a000000000000000000000000000000000000000000000000000000000815260040161203f90613881565b60405180910390fd5b80600560008573ffffffffffffffffffffffffffffffffffffffff1673ffffffffffffffffffffffffffffffffffffffff16815260200190815260200160002060008473ffffffffffffffffffffffffffffffffffffffff1673ffffffffffffffffffffffffffffffffffffffff16815260200190815260200160002060006101000a81548160ff0219169083151502179055508173ffffffffffffffffffffffffffffffffffffffff168373ffffffffffffffffffffffffffffffffffffffff167f17307eab39ab6107e8899845ad3d59bd9653f200f220920489ca2b5937696c3183604051612139919061367b565b60405180910390a3505050565b612151848484611d72565b61215d848484846126a7565b61219c576040517f08c379a0000000000000000000000000000000000000000000000000000000008152600401612193906137e1565b60405180910390fd5b50505050565b606060008214156121ea576040518060400160405280600181526020017f3000000000000000000000000000000000000000000000000000000000000000815250905061234a565b600082905060005b6000821461221c57808061220590613dc9565b915050600a826122159190613bf1565b91506121f2565b60008167ffffffffffffffff81111561225e577f4e487b7100000000000000000000000000000000000000000000000000000000600052604160045260246000fd5b6040519080825280601f01601f1916602001820160405280156122905781602001600182028036833780820191505090505b5090505b60008514612343576001826122a99190613c7c565b9150600a856122b89190613e12565b60306122c49190613b9b565b60f81b818381518110612300577f4e487b7100000000000000000000000000000000000000000000000000000000600052603260045260246000fd5b60200101907effffffffffffffffffffffffffffffffffffffffffffffffffffffffffffff1916908160001a905350600a8561233c9190613bf1565b9450612294565b8093505050505b919050565b606060008251905060008114156123785760405180602001604052806000815250915050612508565b600060036002836123899190613b9b565b6123939190613bf1565b600461239f9190613c22565b905060006020826123b09190613b9b565b67ffffffffffffffff8111156123ef577f4e487b7100000000000000000000000000000000000000000000000000000000600052604160045260246000fd5b6040519080825280601f01601f1916602001820160405280156124215781602001600182028036833780820191505090505b50905060006040518060600160405280604081526020016145c7604091399050600181016020830160005b868110156124c55760038101905062ffffff818a015116603f8160121c168401518060081b905060ff603f83600c1c1686015116810190508060081b905060ff603f8360061c1686015116810190508060081b905060ff603f831686015116810190508060e01b9050808452600484019350505061244c565b5060038606600181146124df57600281146124ef576124fa565b613d3d60f01b60028303526124fa565b603d60f81b60018303525b508484525050819450505050505b919050565b6125a58282604051602401612523929190613773565b6040516020818303038152906040527f9710a9d0000000000000000000000000000000000000000000000000000000007bffffffffffffffffffffffffffffffffffffffffffffffffffffffff19166020820180517bffffffffffffffffffffffffffffffffffffffffffffffffffffffff8381831617835250505050612674565b5050565b600081600001549050919050565b6125d182826040518060200160405280600081525061283e565b5050565b61266f8383836040516024016125ed939291906137a3565b6040516020818303038152906040527f969cdd03000000000000000000000000000000000000000000000000000000007bffffffffffffffffffffffffffffffffffffffffffffffffffffffff19166020820180517bffffffffffffffffffffffffffffffffffffffffffffffffffffffff8381831617835250505050612674565b505050565b60008151905060006a636f6e736f6c652e6c6f679050602083016000808483855afa5050505050565b505050565b505050565b60006126c88473ffffffffffffffffffffffffffffffffffffffff16612899565b15612831578373ffffffffffffffffffffffffffffffffffffffff1663150b7a026126f1611bd3565b8786866040518563ffffffff1660e01b815260040161271394939291906135d6565b602060405180830381600087803b15801561272d57600080fd5b505af192505050801561275e57506040513d601f19601f8201168201806040525081019061275b9190612e3f565b60015b6127e1573d806000811461278e576040519150601f19603f3d011682016040523d82523d6000602084013e612793565b606091505b506000815114156127d9576040517f08c379a00000000000000000000000000000000000000000000000000000000081526004016127d0906137e1565b60405180910390fd5b805181602001fd5b63150b7a0260e01b7bffffffffffffffffffffffffffffffffffffffffffffffffffffffff1916817bffffffffffffffffffffffffffffffffffffffffffffffffffffffff191614915050612836565b600190505b949350505050565b61284883836128bc565b61285560008484846126a7565b612894576040517f08c379a000000000000000000000000000000000000000000000000000000000815260040161288b906137e1565b60405180910390fd5b505050565b6000808273ffffffffffffffffffffffffffffffffffffffff163b119050919050565b600073ffffffffffffffffffffffffffffffffffffffff168273ffffffffffffffffffffffffffffffffffffffff16141561292c576040517f08c379a000000000000000000000000000000000000000000000000000000000815260040161292390613941565b60405180910390fd5b61293581611b67565b15612975576040517f08c379a000000000000000000000000000000000000000000000000000000000815260040161296c90613841565b60405180910390fd5b6129816000838361269d565b6001600360008473ffffffffffffffffffffffffffffffffffffffff1673ffffffffffffffffffffffffffffffffffffffff16815260200190815260200160002060008282546129d19190613b9b565b92505081905550816002600083815260200190815260200160002060006101000a81548173ffffffffffffffffffffffffffffffffffffffff021916908373ffffffffffffffffffffffffffffffffffffffff160217905550808273ffffffffffffffffffffffffffffffffffffffff16600073ffffffffffffffffffffffffffffffffffffffff167fddf252ad1be2c89b69c2b068fc378daa952ba7f163c4a11628f55a4df523b3ef60405160405180910390a4612a92600083836126a2565b5050565b6040518060a0016040528060608152602001606081526020016000815260200160008152602001600081525090565b6040518060c001604052806000815260200160608152602001606081526020016000815260200160008152602001600081525090565b828054612b0790613d66565b90600052602060002090601f016020900481019282612b295760008555612b70565b82601f10612b4257805160ff1916838001178555612b70565b82800160010185558215612b70579182015b82811115612b6f578251825591602001919060010190612b54565b5b509050612b7d9190612b81565b5090565b5b80821115612b9a576000816000905550600101612b82565b5090565b6000612bb1612bac84613add565b613ab8565b905082815260208101848484011115612bc957600080fd5b612bd4848285613d24565b509392505050565b600081359050612beb81614545565b92915050565b600081359050612c008161455c565b92915050565b600081359050612c1581614573565b92915050565b600081519050612c2a81614573565b92915050565b600082601f830112612c4157600080fd5b8135612c51848260208601612b9e565b91505092915050565b600081359050612c698161458a565b92915050565b600060208284031215612c8157600080fd5b6000612c8f84828501612bdc565b91505092915050565b60008060408385031215612cab57600080fd5b6000612cb985828601612bdc565b9250506020612cca85828601612bdc565b9150509250929050565b600080600060608486031215612ce957600080fd5b6000612cf786828701612bdc565b9350506020612d0886828701612bdc565b9250506040612d1986828701612c5a565b9150509250925092565b60008060008060808587031215612d3957600080fd5b6000612d4787828801612bdc565b9450506020612d5887828801612bdc565b9350506040612d6987828801612c5a565b925050606085013567ffffffffffffffff811115612d8657600080fd5b612d9287828801612c30565b91505092959194509250565b60008060408385031215612db157600080fd5b6000612dbf85828601612bdc565b9250506020612dd085828601612bf1565b9150509250929050565b60008060408385031215612ded57600080fd5b6000612dfb85828601612bdc565b9250506020612e0c85828601612c5a565b9150509250929050565b600060208284031215612e2857600080fd5b6000612e3684828501612c06565b91505092915050565b600060208284031215612e5157600080fd5b6000612e5f84828501612c1b565b91505092915050565b600060208284031215612e7a57600080fd5b6000612e8884828501612c5a565b91505092915050565b6000612e9d83836133b6565b905092915050565b612eae81613cb0565b82525050565b6000612ebf82613b1e565b612ec98185613b4c565b935083602082028501612edb85613b0e565b8060005b85811015612f175784840389528151612ef88582612e91565b9450612f0383613b3f565b925060208a01995050600181019050612edf565b50829750879550505050505092915050565b612f3281613cc2565b82525050565b6000612f4382613b29565b612f4d8185613b5d565b9350612f5d818560208601613d33565b612f6681613eff565b840191505092915050565b6000612f7c82613b34565b612f868185613b6e565b9350612f96818560208601613d33565b612f9f81613eff565b840191505092915050565b6000612fb582613b34565b612fbf8185613b7f565b9350612fcf818560208601613d33565b612fd881613eff565b840191505092915050565b6000612fee82613b34565b612ff88185613b90565b9350613008818560208601613d33565b80840191505092915050565b6000613021600b83613b90565b915061302c82613f10565b600b82019050919050565b6000613044603283613b7f565b915061304f82613f39565b604082019050919050565b6000613067602583613b7f565b915061307282613f88565b604082019050919050565b600061308a602883613b7f565b915061309582613fd7565b604082019050919050565b60006130ad601c83613b7f565b91506130b882614026565b602082019050919050565b60006130d0600e83613b90565b91506130db8261404f565b600e82019050919050565b60006130f3602483613b7f565b91506130fe82614078565b604082019050919050565b6000613116601983613b7f565b9150613121826140c7565b602082019050919050565b6000613139602c83613b7f565b9150613144826140f0565b604082019050919050565b600061315c603883613b7f565b91506131678261413f565b604082019050919050565b600061317f602a83613b7f565b915061318a8261418e565b604082019050919050565b60006131a2602983613b7f565b91506131ad826141dd565b604082019050919050565b60006131c5602d83613b7f565b91506131d08261422c565b604082019050919050565b60006131e8600483613b90565b91506131f38261427b565b600482019050919050565b600061320b602083613b7f565b9150613216826142a4565b602082019050919050565b600061322e602c83613b7f565b9150613239826142cd565b604082019050919050565b6000613251600a83613b90565b915061325c8261431c565b600a82019050919050565b6000613274602183613b7f565b915061327f82614345565b604082019050919050565b6000613297601d83613b90565b91506132a282614394565b601d82019050919050565b60006132ba606983613b90565b91506132c5826143bd565b606982019050919050565b60006132dd603183613b7f565b91506132e882614458565b604082019050919050565b6000613300603d83613b90565b915061330b826144a7565b603d82019050919050565b6000613323602d83613b90565b915061332e826144f6565b602d82019050919050565b600060a08301600083015184820360008601526133568282612f71565b915050602083015184820360208601526133708282612f71565b915050604083015161338560408601826134d6565b50606083015161339860608601826134d6565b5060808301516133ab60808601826134d6565b508091505092915050565b600060c0830160008301516133ce60008601826134d6565b50602083015184820360208601526133e68282612f71565b915050604083015184820360408601526134008282612f71565b915050606083015161341560608601826134d6565b50608083015161342860808601826134d6565b5060a083015161343b60a08601826134d6565b508091505092915050565b600060c08301600083015161345e60008601826134d6565b50602083015184820360208601526134768282612f71565b915050604083015184820360408601526134908282612f71565b91505060608301516134a560608601826134d6565b5060808301516134b860808601826134d6565b5060a08301516134cb60a08601826134d6565b508091505092915050565b6134df81613d1a565b82525050565b6134ee81613d1a565b82525050565b60006134ff82613244565b915061350b8289612fe3565b915061351682613014565b91506135228288612fe3565b915061352d826132ad565b91506135398287612fe3565b9150613544826132f3565b91506135508286612fe3565b915061355b826130c3565b91506135678285612fe3565b915061357282613316565b915061357e8284612fe3565b9150613589826131db565b9150819050979650505050505050565b60006135a48261328a565b91506135b08284612fe3565b915081905092915050565b60006020820190506135d06000830184612ea5565b92915050565b60006080820190506135eb6000830187612ea5565b6135f86020830186612ea5565b61360560408301856134e5565b81810360608301526136178184612f38565b905095945050505050565b60006060820190506136376000830186612ea5565b61364460208301856134e5565b61365160408301846134e5565b949350505050565b600060208201905081810360008301526136738184612eb4565b905092915050565b60006020820190506136906000830184612f29565b92915050565b600060208201905081810360008301526136b08184612faa565b905092915050565b600060808201905081810360008301526136d28187612faa565b905081810360208301526136e68186612faa565b90506136f560408301856134e5565b81810360608301526137078184612faa565b905095945050505050565b600060a082019050818103600083015261372c8188612faa565b905081810360208301526137408187612faa565b905061374f60408301866134e5565b61375c60608301856134e5565b61376960808301846134e5565b9695505050505050565b6000604082019050818103600083015261378d8185612faa565b905061379c60208301846134e5565b9392505050565b600060608201905081810360008301526137bd8186612faa565b90506137cc60208301856134e5565b6137d960408301846134e5565b949350505050565b600060208201905081810360008301526137fa81613037565b9050919050565b6000602082019050818103600083015261381a8161305a565b9050919050565b6000602082019050818103600083015261383a8161307d565b9050919050565b6000602082019050818103600083015261385a816130a0565b9050919050565b6000602082019050818103600083015261387a816130e6565b9050919050565b6000602082019050818103600083015261389a81613109565b9050919050565b600060208201905081810360008301526138ba8161312c565b9050919050565b600060208201905081810360008301526138da8161314f565b9050919050565b600060208201905081810360008301526138fa81613172565b9050919050565b6000602082019050818103600083015261391a81613195565b9050919050565b6000602082019050818103600083015261393a816131b8565b9050919050565b6000602082019050818103600083015261395a816131fe565b9050919050565b6000602082019050818103600083015261397a81613221565b9050919050565b6000602082019050818103600083015261399a81613267565b9050919050565b600060208201905081810360008301526139ba816132d0565b9050919050565b600060208201905081810360008301526139db8184613339565b905092915050565b600060208201905081810360008301526139fd8184613446565b905092915050565b6000602082019050613a1a60008301846134e5565b92915050565b600060c082019050613a3560008301896134e5565b8181036020830152613a478188612faa565b90508181036040830152613a5b8187612faa565b9050613a6a60608301866134e5565b613a7760808301856134e5565b613a8460a08301846134e5565b979650505050505050565b6000604082019050613aa460008301856134e5565b613ab160208301846134e5565b9392505050565b6000613ac2613ad3565b9050613ace8282613d98565b919050565b6000604051905090565b600067ffffffffffffffff821115613af857613af7613ed0565b5b613b0182613eff565b9050602081019050919050565b6000819050602082019050919050565b600081519050919050565b600081519050919050565b600081519050919050565b6000602082019050919050565b600082825260208201905092915050565b600082825260208201905092915050565b600082825260208201905092915050565b600082825260208201905092915050565b600081905092915050565b6000613ba682613d1a565b9150613bb183613d1a565b9250827fffffffffffffffffffffffffffffffffffffffffffffffffffffffffffffffff03821115613be657613be5613e43565b5b828201905092915050565b6000613bfc82613d1a565b9150613c0783613d1a565b925082613c1757613c16613e72565b5b828204905092915050565b6000613c2d82613d1a565b9150613c3883613d1a565b9250817fffffffffffffffffffffffffffffffffffffffffffffffffffffffffffffffff0483118215151615613c7157613c70613e43565b5b828202905092915050565b6000613c8782613d1a565b9150613c9283613d1a565b925082821015613ca557613ca4613e43565b5b828203905092915050565b6000613cbb82613cfa565b9050919050565b60008115159050919050565b60007fffffffff0000000000000000000000000000000000000000000000000000000082169050919050565b600073ffffffffffffffffffffffffffffffffffffffff82169050919050565b6000819050919050565b82818337600083830152505050565b60005b83811015613d51578082015181840152602081019050613d36565b83811115613d60576000848401525b50505050565b60006002820490506001821680613d7e57607f821691505b60208210811415613d9257613d91613ea1565b5b50919050565b613da182613eff565b810181811067ffffffffffffffff82111715613dc057613dbf613ed0565b5b80604052505050565b6000613dd482613d1a565b91507fffffffffffffffffffffffffffffffffffffffffffffffffffffffffffffffff821415613e0757613e06613e43565b5b600182019050919050565b6000613e1d82613d1a565b9150613e2883613d1a565b925082613e3857613e37613e72565b5b828206905092915050565b7f4e487b7100000000000000000000000000000000000000000000000000000000600052601160045260246000fd5b7f4e487b7100000000000000000000000000000000000000000000000000000000600052601260045260246000fd5b7f4e487b7100000000000000000000000000000000000000000000000000000000600052602260045260246000fd5b7f4e487b7100000000000000000000000000000000000000000000000000000000600052604160045260246000fd5b6000601f19601f8301169050919050565b7f202d2d204e465420233a20000000000000000000000000000000000000000000600082015250565b7f4552433732313a207472616e7366657220746f206e6f6e20455243373231526560008201527f63656976657220696d706c656d656e7465720000000000000000000000000000602082015250565b7f4552433732313a207472616e736665722066726f6d20696e636f72726563742060008201527f6f776e6572000000000000000000000000000000000000000000000000000000602082015250565b7f4572726f723a20626f7373206d757374206861766520485020746f206174746160008201527f636b20626f73732e000000000000000000000000000000000000000000000000602082015250565b7f4552433732313a20746f6b656e20616c7265616479206d696e74656400000000600082015250565b7f2c20226d61785f76616c7565223a000000000000000000000000000000000000600082015250565b7f4552433732313a207472616e7366657220746f20746865207a65726f2061646460008201527f7265737300000000000000000000000000000000000000000000000000000000602082015250565b7f4552433732313a20617070726f766520746f2063616c6c657200000000000000600082015250565b7f4552433732313a206f70657261746f7220717565727920666f72206e6f6e657860008201527f697374656e7420746f6b656e0000000000000000000000000000000000000000602082015250565b7f4552433732313a20617070726f76652063616c6c6572206973206e6f74206f7760008201527f6e6572206e6f7220617070726f76656420666f7220616c6c0000000000000000602082015250565b7f4552433732313a2062616c616e636520717565727920666f7220746865207a6560008201527f726f206164647265737300000000000000000000000000000000000000000000602082015250565b7f4552433732313a206f776e657220717565727920666f72206e6f6e657869737460008201527f656e7420746f6b656e0000000000000000000000000000000000000000000000602082015250565b7f4572726f723a20636861726163746572206d757374206861766520485020746f60008201527f2061747461636b20626f73732e00000000000000000000000000000000000000602082015250565b7f7d205d7d00000000000000000000000000000000000000000000000000000000600082015250565b7f4552433732313a206d696e7420746f20746865207a65726f2061646472657373600082015250565b7f4552433732313a20617070726f76656420717565727920666f72206e6f6e657860008201527f697374656e7420746f6b656e0000000000000000000000000000000000000000602082015250565b7f7b226e616d65223a202200000000000000000000000000000000000000000000600082015250565b7f4552433732313a20617070726f76616c20746f2063757272656e74206f776e6560008201527f7200000000000000000000000000000000000000000000000000000000000000602082015250565b7f646174613a6170706c69636174696f6e2f6a736f6e3b6261736536342c000000600082015250565b7f222c20226465736372697074696f6e223a20225468697320697320616e204e4660008201527f542074686174206c6574732070656f706c6520706c617920696e20746865206760208201527f616d65204d657461766572736520536c6179657221222c2022696d616765223a60408201527f2022697066733a2f2f0000000000000000000000000000000000000000000000606082015250565b7f4552433732313a207472616e736665722063616c6c6572206973206e6f74206f60008201527f776e6572206e6f7220617070726f766564000000000000000000000000000000602082015250565b7f222c202261747472696275746573223a205b207b202274726169745f7479706560008201527f223a20224865616c746820506f696e7473222c202276616c7565223a20000000602082015250565b7f7d2c207b202274726169745f74797065223a202241747461636b2044616d616760008201527f65222c202276616c7565223a2000000000000000000000000000000000000000602082015250565b61454e81613cb0565b811461455957600080fd5b50565b61456581613cc2565b811461457057600080fd5b50565b61457c81613cce565b811461458757600080fd5b50565b61459381613d1a565b811461459e57600080fd5b5056fe506c617965722061747461636b656420626f73732e204e657720626f73732068703a2025734142434445464748494a4b4c4d4e4f505152535455565758595a6162636465666768696a6b6c6d6e6f707172737475767778797a303132333435363738392b2f426f73732061747461636b656420706c617965722e204e657720706c617965722068703a2025730a4d696e746564204e465420772f20746f6b656e496420257320616e6420636861726163746572496e646578202573a26469706673582212208e1bdafc7eb47b78e6540694605b8449945521f065acfa33beb3f132a21809be64736f6c63430008040033446f6e6520696e697469616c697a696e6720257320772f2048502025732c20696d67202573446f6e6520696e697469616c697a696e6720626f737320257320772f2048502025732c20696d67202573",
  "linkReferences": {},
  "deployedLinkReferences": {}
}