{
  "_format": "hh-sol-artifact-1",
  "contractName": "MyEpicGame",
  "sourceName": "contracts/MyEpicGame.sol",
  "abi": [
    {
      "inputs": [
        {
          "internalType": "string[]",
          "name": "characterNames",
          "type": "string[]"
        },
        {
          "internalType": "string[]",
          "name": "characterImageURIs",
          "type": "string[]"
        },
        {
          "internalType": "uint256[]",
          "name": "characterHp",
          "type": "uint256[]"
        },
        {
          "internalType": "uint256[]",
          "name": "characterAttackDmg",
          "type": "uint256[]"
        },
        {
          "internalType": "string",
          "name": "bossName",
          "type": "string"
        },
        {
          "internalType": "string",
          "name": "bossImageURI",
          "type": "string"
        },
        {
          "internalType": "uint256",
          "name": "bossHp",
          "type": "uint256"
        },
        {
          "internalType": "uint256",
          "name": "bossAttackDamage",
          "type": "uint256"
        }
      ],
      "stateMutability": "nonpayable",
      "type": "constructor"
    },
    {
      "anonymous": false,
      "inputs": [
        {
          "indexed": false,
          "internalType": "string",
          "name": "characterName",
          "type": "string"
        },
        {
          "indexed": false,
          "internalType": "string",
          "name": "characterImageURI",
          "type": "string"
        },
        {
          "indexed": false,
          "internalType": "uint256",
          "name": "characterHp",
          "type": "uint256"
        },
        {
          "indexed": false,
          "internalType": "uint256",
          "name": "characterAttackDmg",
          "type": "uint256"
        }
      ],
      "name": "AddChracterData",
      "type": "event"
    },
    {
      "anonymous": false,
      "inputs": [
        {
          "indexed": true,
          "internalType": "address",
          "name": "owner",
          "type": "address"
        },
        {
          "indexed": true,
          "internalType": "address",
          "name": "approved",
          "type": "address"
        },
        {
          "indexed": true,
          "internalType": "uint256",
          "name": "tokenId",
          "type": "uint256"
        }
      ],
      "name": "Approval",
      "type": "event"
    },
    {
      "anonymous": false,
      "inputs": [
        {
          "indexed": true,
          "internalType": "address",
          "name": "owner",
          "type": "address"
        },
        {
          "indexed": true,
          "internalType": "address",
          "name": "operator",
          "type": "address"
        },
        {
          "indexed": false,
          "internalType": "bool",
          "name": "approved",
          "type": "bool"
        }
      ],
      "name": "ApprovalForAll",
      "type": "event"
    },
    {
      "anonymous": false,
      "inputs": [
        {
          "indexed": false,
          "internalType": "uint256",
          "name": "newBossHp",
          "type": "uint256"
        },
        {
          "indexed": false,
          "internalType": "uint256",
          "name": "newPlayerHp",
          "type": "uint256"
        }
      ],
      "name": "AttackComplete",
      "type": "event"
    },
    {
      "anonymous": false,
      "inputs": [
        {
          "indexed": false,
          "internalType": "address",
          "name": "sender",
          "type": "address"
        },
        {
          "indexed": false,
          "internalType": "uint256",
          "name": "tokenId",
          "type": "uint256"
        },
        {
          "indexed": false,
          "internalType": "uint256",
          "name": "characterIndex",
          "type": "uint256"
        }
      ],
      "name": "CharacterNFTMinted",
      "type": "event"
    },
    {
      "anonymous": false,
      "inputs": [
        {
          "indexed": true,
          "internalType": "address",
          "name": "from",
          "type": "address"
        },
        {
          "indexed": true,
          "internalType": "address",
          "name": "to",
          "type": "address"
        },
        {
          "indexed": true,
          "internalType": "uint256",
          "name": "tokenId",
          "type": "uint256"
        }
      ],
      "name": "Transfer",
      "type": "event"
    },
    {
      "inputs": [
        {
          "internalType": "string",
          "name": "characterName",
          "type": "string"
        },
        {
          "internalType": "string",
          "name": "characterImageURI",
          "type": "string"
        },
        {
          "internalType": "uint256",
          "name": "characterHp",
          "type": "uint256"
        },
        {
          "internalType": "uint256",
          "name": "characterAttackDmg",
          "type": "uint256"
        }
      ],
      "name": "addChracterData",
      "outputs": [],
      "stateMutability": "nonpayable",
      "type": "function"
    },
    {
      "inputs": [
        {
          "internalType": "address",
          "name": "to",
          "type": "address"
        },
        {
          "internalType": "uint256",
          "name": "tokenId",
          "type": "uint256"
        }
      ],
      "name": "approve",
      "outputs": [],
      "stateMutability": "nonpayable",
      "type": "function"
    },
    {
      "inputs": [],
      "name": "attackBoss",
      "outputs": [],
      "stateMutability": "nonpayable",
      "type": "function"
    },
    {
      "inputs": [
        {
          "internalType": "address",
          "name": "owner",
          "type": "address"
        }
      ],
      "name": "balanceOf",
      "outputs": [
        {
          "internalType": "uint256",
          "name": "",
          "type": "uint256"
        }
      ],
      "stateMutability": "view",
      "type": "function"
    },
    {
      "inputs": [],
      "name": "bigBoss",
      "outputs": [
        {
          "internalType": "string",
          "name": "name",
          "type": "string"
        },
        {
          "internalType": "string",
          "name": "imageURI",
          "type": "string"
        },
        {
          "internalType": "uint256",
          "name": "hp",
          "type": "uint256"
        },
        {
          "internalType": "uint256",
          "name": "maxHp",
          "type": "uint256"
        },
        {
          "internalType": "uint256",
          "name": "attackDamage",
          "type": "uint256"
        }
      ],
      "stateMutability": "view",
      "type": "function"
    },
    {
      "inputs": [],
      "name": "checkIfUserHasNFT",
      "outputs": [
        {
          "components": [
            {
              "internalType": "uint256",
              "name": "characterIndex",
              "type": "uint256"
            },
            {
              "internalType": "string",
              "name": "name",
              "type": "string"
            },
            {
              "internalType": "string",
              "name": "imageURI",
              "type": "string"
            },
            {
              "internalType": "uint256",
              "name": "hp",
              "type": "uint256"
            },
            {
              "internalType": "uint256",
              "name": "maxHp",
              "type": "uint256"
            },
            {
              "internalType": "uint256",
              "name": "attackDamage",
              "type": "uint256"
            }
          ],
          "internalType": "struct MyEpicGame.CharacterAttributes",
          "name": "",
          "type": "tuple"
        }
      ],
      "stateMutability": "view",
      "type": "function"
    },
    {
      "inputs": [],
      "name": "getAllDefaultCharacters",
      "outputs": [
        {
          "components": [
            {
              "internalType": "uint256",
              "name": "characterIndex",
              "type": "uint256"
            },
            {
              "internalType": "string",
              "name": "name",
              "type": "string"
            },
            {
              "internalType": "string",
              "name": "imageURI",
              "type": "string"
            },
            {
              "internalType": "uint256",
              "name": "hp",
              "type": "uint256"
            },
            {
              "internalType": "uint256",
              "name": "maxHp",
              "type": "uint256"
            },
            {
              "internalType": "uint256",
              "name": "attackDamage",
              "type": "uint256"
            }
          ],
          "internalType": "struct MyEpicGame.CharacterAttributes[]",
          "name": "",
          "type": "tuple[]"
        }
      ],
      "stateMutability": "view",
      "type": "function"
    },
    {
      "inputs": [
        {
          "internalType": "uint256",
          "name": "tokenId",
          "type": "uint256"
        }
      ],
      "name": "getApproved",
      "outputs": [
        {
          "internalType": "address",
          "name": "",
          "type": "address"
        }
      ],
      "stateMutability": "view",
      "type": "function"
    },
    {
      "inputs": [],
      "name": "getBisBoss",
      "outputs": [
        {
          "components": [
            {
              "internalType": "string",
              "name": "name",
              "type": "string"
            },
            {
              "internalType": "string",
              "name": "imageURI",
              "type": "string"
            },
            {
              "internalType": "uint256",
              "name": "hp",
              "type": "uint256"
            },
            {
              "internalType": "uint256",
              "name": "maxHp",
              "type": "uint256"
            },
            {
              "internalType": "uint256",
              "name": "attackDamage",
              "type": "uint256"
            }
          ],
          "internalType": "struct MyEpicGame.BigBoss",
          "name": "",
          "type": "tuple"
        }
      ],
      "stateMutability": "view",
      "type": "function"
    },
    {
      "inputs": [
        {
          "internalType": "address",
          "name": "owner",
          "type": "address"
        },
        {
          "internalType": "address",
          "name": "operator",
          "type": "address"
        }
      ],
      "name": "isApprovedForAll",
      "outputs": [
        {
          "internalType": "bool",
          "name": "",
          "type": "bool"
        }
      ],
      "stateMutability": "view",
      "type": "function"
    },
    {
      "inputs": [
        {
          "internalType": "uint256",
          "name": "_characterIndex",
          "type": "uint256"
        }
      ],
      "name": "mintCharacterNFT",
      "outputs": [],
      "stateMutability": "nonpayable",
      "type": "function"
    },
    {
      "inputs": [],
      "name": "name",
      "outputs": [
        {
          "internalType": "string",
          "name": "",
          "type": "string"
        }
      ],
      "stateMutability": "view",
      "type": "function"
    },
    {
      "inputs": [
        {
          "internalType": "uint256",
          "name": "",
          "type": "uint256"
        }
      ],
      "name": "nftHolderAttributes",
      "outputs": [
        {
          "internalType": "uint256",
          "name": "characterIndex",
          "type": "uint256"
        },
        {
          "internalType": "string",
          "name": "name",
          "type": "string"
        },
        {
          "internalType": "string",
          "name": "imageURI",
          "type": "string"
        },
        {
          "internalType": "uint256",
          "name": "hp",
          "type": "uint256"
        },
        {
          "internalType": "uint256",
          "name": "maxHp",
          "type": "uint256"
        },
        {
          "internalType": "uint256",
          "name": "attackDamage",
          "type": "uint256"
        }
      ],
      "stateMutability": "view",
      "type": "function"
    },
    {
      "inputs": [
        {
          "internalType": "address",
          "name": "",
          "type": "address"
        }
      ],
      "name": "nftHolders",
      "outputs": [
        {
          "internalType": "uint256",
          "name": "",
          "type": "uint256"
        }
      ],
      "stateMutability": "view",
      "type": "function"
    },
    {
      "inputs": [
        {
          "internalType": "uint256",
          "name": "tokenId",
          "type": "uint256"
        }
      ],
      "name": "ownerOf",
      "outputs": [
        {
          "internalType": "address",
          "name": "",
          "type": "address"
        }
      ],
      "stateMutability": "view",
      "type": "function"
    },
    {
      "inputs": [
        {
          "internalType": "address",
          "name": "",
          "type": "address"
        }
      ],
      "name": "owners",
      "outputs": [
        {
          "internalType": "bool",
          "name": "",
          "type": "bool"
        }
      ],
      "stateMutability": "view",
      "type": "function"
    },
    {
      "inputs": [
        {
          "internalType": "address",
          "name": "from",
          "type": "address"
        },
        {
          "internalType": "address",
          "name": "to",
          "type": "address"
        },
        {
          "internalType": "uint256",
          "name": "tokenId",
          "type": "uint256"
        }
      ],
      "name": "safeTransferFrom",
      "outputs": [],
      "stateMutability": "nonpayable",
      "type": "function"
    },
    {
      "inputs": [
        {
          "internalType": "address",
          "name": "from",
          "type": "address"
        },
        {
          "internalType": "address",
          "name": "to",
          "type": "address"
        },
        {
          "internalType": "uint256",
          "name": "tokenId",
          "type": "uint256"
        },
        {
          "internalType": "bytes",
          "name": "_data",
          "type": "bytes"
        }
      ],
      "name": "safeTransferFrom",
      "outputs": [],
      "stateMutability": "nonpayable",
      "type": "function"
    },
    {
      "inputs": [
        {
          "internalType": "address",
          "name": "operator",
          "type": "address"
        },
        {
          "internalType": "bool",
          "name": "approved",
          "type": "bool"
        }
      ],
      "name": "setApprovalForAll",
      "outputs": [],
      "stateMutability": "nonpayable",
      "type": "function"
    },
    {
      "inputs": [
        {
          "internalType": "bytes4",
          "name": "interfaceId",
          "type": "bytes4"
        }
      ],
      "name": "supportsInterface",
      "outputs": [
        {
          "internalType": "bool",
          "name": "",
          "type": "bool"
        }
      ],
      "stateMutability": "view",
      "type": "function"
    },
    {
      "inputs": [],
      "name": "symbol",
      "outputs": [
        {
          "internalType": "string",
          "name": "",
          "type": "string"
        }
      ],
      "stateMutability": "view",
      "type": "function"
    },
    {
      "inputs": [
        {
          "internalType": "uint256",
          "name": "_tokenId",
          "type": "uint256"
        }
      ],
      "name": "tokenURI",
      "outputs": [
        {
          "internalType": "string",
          "name": "",
          "type": "string"
        }
      ],
      "stateMutability": "view",
      "type": "function"
    },
    {
      "inputs": [
        {
          "internalType": "address",
          "name": "from",
          "type": "address"
        },
        {
          "internalType": "address",
          "name": "to",
          "type": "address"
        },
        {
          "internalType": "uint256",
          "name": "tokenId",
          "type": "uint256"
        }
      ],
      "name": "transferFrom",
      "outputs": [],
      "stateMutability": "nonpayable",
      "type": "function"
    }
  ],
  "bytecode": "0x60806040523480156200001157600080fd5b5060405162005c4b38038062005c4b833981810160405281019062000037919062000add565b6040518060400160405280600881526020017f4f6e6550696563650000000000000000000000000000000000000000000000008152506040518060400160405280600881526020017f4f4e4550494543450000000000000000000000000000000000000000000000008152508160009080519060200190620000bb92919062000845565b508060019080519060200190620000d492919062000845565b5050506040518060a0016040528085815260200184815260200183815260200183815260200182815250600760008201518160000190805190602001906200011e92919062000845565b5060208201518160010190805190602001906200013d92919062000845565b50604082015181600201556060820151816003015560808201518160040155905050620002c06040518060600160405280602a815260200162005c21602a9139600760000180546200018f9062000e60565b80601f0160208091040260200160405190810160405280929190818152602001828054620001bd9062000e60565b80156200020e5780601f10620001e2576101008083540402835291602001916200020e565b820191906000526020600020905b815481529060010190602001808311620001f057829003601f168201915b5050505050600760020154600760010180546200022b9062000e60565b80601f0160208091040260200160405190810160405280929190818152602001828054620002599062000e60565b8015620002aa5780601f106200027e57610100808354040283529160200191620002aa565b820191906000526020600020905b8154815290600101906020018083116200028c57829003601f168201915b50505050506200075a60201b62001ce61760201c565b60005b8851811015620006dc5760066040518060c001604052808381526020018b84815181106200031a577f4e487b7100000000000000000000000000000000000000000000000000000000600052603260045260246000fd5b602002602001015181526020018a848151811062000361577f4e487b7100000000000000000000000000000000000000000000000000000000600052603260045260246000fd5b60200260200101518152602001898481518110620003a8577f4e487b7100000000000000000000000000000000000000000000000000000000600052603260045260246000fd5b60200260200101518152602001898481518110620003ef577f4e487b7100000000000000000000000000000000000000000000000000000000600052603260045260246000fd5b6020026020010151815260200188848151811062000436577f4e487b7100000000000000000000000000000000000000000000000000000000600052603260045260246000fd5b602002602001015181525090806001815401808255809150506001900390600052602060002090600602016000909190919091506000820151816000015560208201518160010190805190602001906200049292919062000845565b506040820151816002019080519060200190620004b192919062000845565b50606082015181600301556080820151816004015560a0820151816005015550506000600682815481106200050f577f4e487b7100000000000000000000000000000000000000000000000000000000600052603260045260246000fd5b90600052602060002090600602016040518060c001604052908160008201548152602001600182018054620005449062000e60565b80601f0160208091040260200160405190810160405280929190818152602001828054620005729062000e60565b8015620005c35780601f106200059757610100808354040283529160200191620005c3565b820191906000526020600020905b815481529060010190602001808311620005a557829003601f168201915b50505050508152602001600282018054620005de9062000e60565b80601f01602080910402602001604051908101604052809291908181526020018280546200060c9062000e60565b80156200065d5780601f1062000631576101008083540402835291602001916200065d565b820191906000526020600020905b8154815290600101906020018083116200063f57829003601f168201915b5050505050815260200160038201548152602001600482015481526020016005820154815250509050620006c460405180606001604052806025815260200162005bfc602591398260200151836060015184604001516200075a60201b62001ce61760201c565b50600181620006d4919062000dc3565b9050620002c3565b50620006f4600c6200080660201b62001d881760201c565b6001600f60003373ffffffffffffffffffffffffffffffffffffffff1673ffffffffffffffffffffffffffffffffffffffff16815260200190815260200160002060006101000a81548160ff021916908315150217905550505050505050505062000f84565b620008008484848460405160240162000777949392919062000c88565b6040516020818303038152906040527f8d142cdd000000000000000000000000000000000000000000000000000000007bffffffffffffffffffffffffffffffffffffffffffffffffffffffff19166020820180517bffffffffffffffffffffffffffffffffffffffffffffffffffffffff83818316178352505050506200081c60201b60201c565b50505050565b6001816000016000828254019250508190555050565b60008151905060006a636f6e736f6c652e6c6f679050602083016000808483855afa5050505050565b828054620008539062000e60565b90600052602060002090601f016020900481019282620008775760008555620008c3565b82601f106200089257805160ff1916838001178555620008c3565b82800160010185558215620008c3579182015b82811115620008c2578251825591602001919060010190620008a5565b5b509050620008d29190620008d6565b5090565b5b80821115620008f1576000816000905550600101620008d7565b5090565b60006200090c620009068462000d13565b62000cea565b905080838252602082019050828560208602820111156200092c57600080fd5b60005b858110156200097b57815167ffffffffffffffff8111156200095057600080fd5b8086016200095f898262000a99565b855260208501945060208401935050506001810190506200092f565b5050509392505050565b60006200099c620009968462000d42565b62000cea565b90508083825260208201905082856020860282011115620009bc57600080fd5b60005b85811015620009f05781620009d5888262000ac6565b845260208401935060208301925050600181019050620009bf565b5050509392505050565b600062000a1162000a0b8462000d71565b62000cea565b90508281526020810184848401111562000a2a57600080fd5b62000a3784828562000e2a565b509392505050565b600082601f83011262000a5157600080fd5b815162000a63848260208601620008f5565b91505092915050565b600082601f83011262000a7e57600080fd5b815162000a9084826020860162000985565b91505092915050565b600082601f83011262000aab57600080fd5b815162000abd848260208601620009fa565b91505092915050565b60008151905062000ad78162000f6a565b92915050565b600080600080600080600080610100898b03121562000afb57600080fd5b600089015167ffffffffffffffff81111562000b1657600080fd5b62000b248b828c0162000a3f565b985050602089015167ffffffffffffffff81111562000b4257600080fd5b62000b508b828c0162000a3f565b975050604089015167ffffffffffffffff81111562000b6e57600080fd5b62000b7c8b828c0162000a6c565b965050606089015167ffffffffffffffff81111562000b9a57600080fd5b62000ba88b828c0162000a6c565b955050608089015167ffffffffffffffff81111562000bc657600080fd5b62000bd48b828c0162000a99565b94505060a089015167ffffffffffffffff81111562000bf257600080fd5b62000c008b828c0162000a99565b93505060c062000c138b828c0162000ac6565b92505060e062000c268b828c0162000ac6565b9150509295985092959890939650565b600062000c438262000da7565b62000c4f818562000db2565b935062000c6181856020860162000e2a565b62000c6c8162000f59565b840191505092915050565b62000c828162000e20565b82525050565b6000608082019050818103600083015262000ca4818762000c36565b9050818103602083015262000cba818662000c36565b905062000ccb604083018562000c77565b818103606083015262000cdf818462000c36565b905095945050505050565b600062000cf662000d09565b905062000d04828262000e96565b919050565b6000604051905090565b600067ffffffffffffffff82111562000d315762000d3062000f2a565b5b602082029050602081019050919050565b600067ffffffffffffffff82111562000d605762000d5f62000f2a565b5b602082029050602081019050919050565b600067ffffffffffffffff82111562000d8f5762000d8e62000f2a565b5b62000d9a8262000f59565b9050602081019050919050565b600081519050919050565b600082825260208201905092915050565b600062000dd08262000e20565b915062000ddd8362000e20565b9250827fffffffffffffffffffffffffffffffffffffffffffffffffffffffffffffffff0382111562000e155762000e1462000ecc565b5b828201905092915050565b6000819050919050565b60005b8381101562000e4a57808201518184015260208101905062000e2d565b8381111562000e5a576000848401525b50505050565b6000600282049050600182168062000e7957607f821691505b6020821081141562000e905762000e8f62000efb565b5b50919050565b62000ea18262000f59565b810181811067ffffffffffffffff8211171562000ec35762000ec262000f2a565b5b80604052505050565b7f4e487b7100000000000000000000000000000000000000000000000000000000600052601160045260246000fd5b7f4e487b7100000000000000000000000000000000000000000000000000000000600052602260045260246000fd5b7f4e487b7100000000000000000000000000000000000000000000000000000000600052604160045260246000fd5b6000601f19601f8301169050919050565b62000f758162000e20565b811462000f8157600080fd5b50565b614c688062000f946000396000f3fe608060405234801561001057600080fd5b506004361061014d5760003560e01c80637df124a1116100c3578063b953084e1161007c578063b953084e146103cb578063c87b56dd146103e9578063c8cf27f414610419578063d4f24c5b14610437578063e985e9c514610441578063f8b81ef7146104715761014d565b80637df124a1146102ee57806395d89b411461031e57806398da4c951461033c578063a22cb46514610371578063a9c326791461038d578063b88d4fde146103af5761014d565b80631a3ca918116101155780631a3ca9181461021c57806323b872dd1461023857806334b130461461025457806342842e0e146102725780636352211e1461028e57806370a08231146102be5761014d565b806301ffc9a714610152578063022914a71461018257806306fdde03146101b2578063081812fc146101d0578063095ea7b314610200575b600080fd5b61016c6004803603810190610167919061311f565b61048d565b6040516101799190613a80565b60405180910390f35b61019c60048036038101906101979190612f78565b61056f565b6040516101a99190613a80565b60405180910390f35b6101ba61058f565b6040516101c79190613a9b565b60405180910390f35b6101ea60048036038101906101e59190613204565b610621565b6040516101f791906139c0565b60405180910390f35b61021a600480360381019061021591906130e3565b6106a6565b005b61023660048036038101906102319190613171565b6107be565b005b610252600480360381019061024d9190612fdd565b6109dd565b005b61025c610a3d565b6040516102699190613e79565b60405180910390f35b61028c60048036038101906102879190612fdd565b610b99565b005b6102a860048036038101906102a39190613204565b610bb9565b6040516102b591906139c0565b60405180910390f35b6102d860048036038101906102d39190612f78565b610c6b565b6040516102e59190613ebd565b60405180910390f35b61030860048036038101906103039190612f78565b610d23565b6040516103159190613ebd565b60405180910390f35b610326610d3b565b6040516103339190613a9b565b60405180910390f35b61035660048036038101906103519190613204565b610dcd565b60405161036896959493929190613ed8565b60405180910390f35b61038b600480360381019061038691906130a7565b610f19565b005b610395610f2f565b6040516103a6959493929190613b6a565b60405180910390f35b6103c960048036038101906103c4919061302c565b611063565b005b6103d36110c5565b6040516103e09190613a5e565b60405180910390f35b61040360048036038101906103fe9190613204565b611270565b6040516104109190613a9b565b60405180910390f35b61042161148b565b60405161042e9190613e9b565b60405180910390f35b61043f611663565b005b61045b60048036038101906104569190612fa1565b61185e565b6040516104689190613a80565b60405180910390f35b61048b60048036038101906104869190613204565b6118f2565b005b60007f80ac58cd000000000000000000000000000000000000000000000000000000007bffffffffffffffffffffffffffffffffffffffffffffffffffffffff1916827bffffffffffffffffffffffffffffffffffffffffffffffffffffffff1916148061055857507f5b5e139f000000000000000000000000000000000000000000000000000000007bffffffffffffffffffffffffffffffffffffffffffffffffffffffff1916827bffffffffffffffffffffffffffffffffffffffffffffffffffffffff1916145b80610568575061056782611d9e565b5b9050919050565b600f6020528060005260406000206000915054906101000a900460ff1681565b60606000805461059e9061424f565b80601f01602080910402602001604051908101604052809291908181526020018280546105ca9061424f565b80156106175780601f106105ec57610100808354040283529160200191610617565b820191906000526020600020905b8154815290600101906020018083116105fa57829003601f168201915b5050505050905090565b600061062c82611e08565b61066b576040517f08c379a000000000000000000000000000000000000000000000000000000000815260040161066290613dd9565b60405180910390fd5b6004600083815260200190815260200160002060009054906101000a900473ffffffffffffffffffffffffffffffffffffffff169050919050565b60006106b182610bb9565b90508073ffffffffffffffffffffffffffffffffffffffff168373ffffffffffffffffffffffffffffffffffffffff161415610722576040517f08c379a000000000000000000000000000000000000000000000000000000000815260040161071990613e19565b60405180910390fd5b8073ffffffffffffffffffffffffffffffffffffffff16610741611e74565b73ffffffffffffffffffffffffffffffffffffffff161480610770575061076f8161076a611e74565b61185e565b5b6107af576040517f08c379a00000000000000000000000000000000000000000000000000000000081526004016107a690613d39565b60405180910390fd5b6107b98383611e7c565b505050565b600f60003373ffffffffffffffffffffffffffffffffffffffff1673ffffffffffffffffffffffffffffffffffffffff16815260200190815260200160002060009054906101000a900460ff1661084a576040517f08c379a000000000000000000000000000000000000000000000000000000000815260040161084190613e59565b60405180910390fd5b6101f482111561088f576040517f08c379a000000000000000000000000000000000000000000000000000000000815260040161088690613d19565b60405180910390fd5b60c88111156108d3576040517f08c379a00000000000000000000000000000000000000000000000000000000081526004016108ca90613df9565b60405180910390fd5b6000600680549050905060066040518060c0016040528083815260200187815260200186815260200185815260200185815260200184815250908060018154018082558091505060019003906000526020600020906006020160009091909190915060008201518160000155602082015181600101908051906020019061095b929190612d37565b506040820151816002019080519060200190610978929190612d37565b50606082015181600301556080820151816004015560a0820151816005015550507f07e2faab8351422c929aa07a69a8ebcba512bec1428df174e86562b94a977467858585856040516109ce9493929190613b17565b60405180910390a15050505050565b6109ee6109e8611e74565b82611f35565b610a2d576040517f08c379a0000000000000000000000000000000000000000000000000000000008152600401610a2490613e39565b60405180910390fd5b610a38838383612013565b505050565b610a45612dbd565b60076040518060a0016040529081600082018054610a629061424f565b80601f0160208091040260200160405190810160405280929190818152602001828054610a8e9061424f565b8015610adb5780601f10610ab057610100808354040283529160200191610adb565b820191906000526020600020905b815481529060010190602001808311610abe57829003601f168201915b50505050508152602001600182018054610af49061424f565b80601f0160208091040260200160405190810160405280929190818152602001828054610b209061424f565b8015610b6d5780601f10610b4257610100808354040283529160200191610b6d565b820191906000526020600020905b815481529060010190602001808311610b5057829003601f168201915b505050505081526020016002820154815260200160038201548152602001600482015481525050905090565b610bb483838360405180602001604052806000815250611063565b505050565b6000806002600084815260200190815260200160002060009054906101000a900473ffffffffffffffffffffffffffffffffffffffff169050600073ffffffffffffffffffffffffffffffffffffffff168173ffffffffffffffffffffffffffffffffffffffff161415610c62576040517f08c379a0000000000000000000000000000000000000000000000000000000008152600401610c5990613d79565b60405180910390fd5b80915050919050565b60008073ffffffffffffffffffffffffffffffffffffffff168273ffffffffffffffffffffffffffffffffffffffff161415610cdc576040517f08c379a0000000000000000000000000000000000000000000000000000000008152600401610cd390613d59565b60405180910390fd5b600360008373ffffffffffffffffffffffffffffffffffffffff1673ffffffffffffffffffffffffffffffffffffffff168152602001908152602001600020549050919050565b600e6020528060005260406000206000915090505481565b606060018054610d4a9061424f565b80601f0160208091040260200160405190810160405280929190818152602001828054610d769061424f565b8015610dc35780601f10610d9857610100808354040283529160200191610dc3565b820191906000526020600020905b815481529060010190602001808311610da657829003601f168201915b5050505050905090565b600d602052806000526040600020600091509050806000015490806001018054610df69061424f565b80601f0160208091040260200160405190810160405280929190818152602001828054610e229061424f565b8015610e6f5780601f10610e4457610100808354040283529160200191610e6f565b820191906000526020600020905b815481529060010190602001808311610e5257829003601f168201915b505050505090806002018054610e849061424f565b80601f0160208091040260200160405190810160405280929190818152602001828054610eb09061424f565b8015610efd5780601f10610ed257610100808354040283529160200191610efd565b820191906000526020600020905b815481529060010190602001808311610ee057829003601f168201915b5050505050908060030154908060040154908060050154905086565b610f2b610f24611e74565b838361227a565b5050565b6007806000018054610f409061424f565b80601f0160208091040260200160405190810160405280929190818152602001828054610f6c9061424f565b8015610fb95780601f10610f8e57610100808354040283529160200191610fb9565b820191906000526020600020905b815481529060010190602001808311610f9c57829003601f168201915b505050505090806001018054610fce9061424f565b80601f0160208091040260200160405190810160405280929190818152602001828054610ffa9061424f565b80156110475780601f1061101c57610100808354040283529160200191611047565b820191906000526020600020905b81548152906001019060200180831161102a57829003601f168201915b5050505050908060020154908060030154908060040154905085565b61107461106e611e74565b83611f35565b6110b3576040517f08c379a00000000000000000000000000000000000000000000000000000000081526004016110aa90613e39565b60405180910390fd5b6110bf848484846123e7565b50505050565b60606006805480602002602001604051908101604052809291908181526020016000905b8282101561126757838290600052602060002090600602016040518060c0016040529081600082015481526020016001820180546111269061424f565b80601f01602080910402602001604051908101604052809291908181526020018280546111529061424f565b801561119f5780601f106111745761010080835404028352916020019161119f565b820191906000526020600020905b81548152906001019060200180831161118257829003601f168201915b505050505081526020016002820180546111b89061424f565b80601f01602080910402602001604051908101604052809291908181526020018280546111e49061424f565b80156112315780601f1061120657610100808354040283529160200191611231565b820191906000526020600020905b81548152906001019060200180831161121457829003601f168201915b505050505081526020016003820154815260200160048201548152602001600582015481525050815260200190600101906110e9565b50505050905090565b60606000600d60008481526020019081526020016000206040518060c0016040529081600082015481526020016001820180546112ac9061424f565b80601f01602080910402602001604051908101604052809291908181526020018280546112d89061424f565b80156113255780601f106112fa57610100808354040283529160200191611325565b820191906000526020600020905b81548152906001019060200180831161130857829003601f168201915b5050505050815260200160028201805461133e9061424f565b80601f016020809104026020016040519081016040528092919081815260200182805461136a9061424f565b80156113b75780601f1061138c576101008083540402835291602001916113b7565b820191906000526020600020905b81548152906001019060200180831161139a57829003601f168201915b505050505081526020016003820154815260200160048201548152602001600582015481525050905060006113ef8260600151612443565b905060006114008360800151612443565b905060006114118460a00151612443565b90506000611457856020015161142689612443565b8760400151878787604051602001611443969594939291906138f9565b6040516020818303038152906040526125f0565b905060008160405160200161146c919061399e565b6040516020818303038152906040529050809650505050505050919050565b611493612dec565b6000600e60003373ffffffffffffffffffffffffffffffffffffffff1673ffffffffffffffffffffffffffffffffffffffff168152602001908152602001600020549050600081111561165257600d60008281526020019081526020016000206040518060c0016040529081600082015481526020016001820180546115189061424f565b80601f01602080910402602001604051908101604052809291908181526020018280546115449061424f565b80156115915780601f1061156657610100808354040283529160200191611591565b820191906000526020600020905b81548152906001019060200180831161157457829003601f168201915b505050505081526020016002820180546115aa9061424f565b80601f01602080910402602001604051908101604052809291908181526020018280546115d69061424f565b80156116235780601f106115f857610100808354040283529160200191611623565b820191906000526020600020905b81548152906001019060200180831161160657829003601f168201915b505050505081526020016003820154815260200160048201548152602001600582015481525050915050611660565b61165a612dec565b80925050505b90565b6000600e60003373ffffffffffffffffffffffffffffffffffffffff1673ffffffffffffffffffffffffffffffffffffffff1681526020019081526020016000205490506000600d600083815260200190815260200160002090506000816003015411611705576040517f08c379a00000000000000000000000000000000000000000000000000000000081526004016116fc90613d99565b60405180910390fd5b60006007600201541161174d576040517f08c379a000000000000000000000000000000000000000000000000000000000815260040161174490613c79565b60405180910390fd5b8060050154600760020154101561176e57600060076002018190555061178d565b80600501546007600201546117839190614165565b6007600201819055505b600760040154816003015410156117ad57600081600301819055506117cb565b60076004015481600301546117c29190614165565b81600301819055505b6117f2604051806060016040528060258152602001614b78602591396007600201546127ae565b611818604051806060016040528060288152602001614bdd6028913982600301546127ae565b7f838ab28464562786a6c4ab2311964b82fa60bd9b14aa7e856af1f3f18d41a4146007600201548260030154604051611852929190613f47565b60405180910390a15050565b6000600560008473ffffffffffffffffffffffffffffffffffffffff1673ffffffffffffffffffffffffffffffffffffffff16815260200190815260200160002060008373ffffffffffffffffffffffffffffffffffffffff1673ffffffffffffffffffffffffffffffffffffffff16815260200190815260200160002060009054906101000a900460ff16905092915050565b60006118fe600c61284a565b905061190a3382612858565b6040518060c0016040528083815260200160068481548110611955577f4e487b7100000000000000000000000000000000000000000000000000000000600052603260045260246000fd5b906000526020600020906006020160010180546119719061424f565b80601f016020809104026020016040519081016040528092919081815260200182805461199d9061424f565b80156119ea5780601f106119bf576101008083540402835291602001916119ea565b820191906000526020600020905b8154815290600101906020018083116119cd57829003601f168201915b5050505050815260200160068481548110611a2e577f4e487b7100000000000000000000000000000000000000000000000000000000600052603260045260246000fd5b90600052602060002090600602016002018054611a4a9061424f565b80601f0160208091040260200160405190810160405280929190818152602001828054611a769061424f565b8015611ac35780601f10611a9857610100808354040283529160200191611ac3565b820191906000526020600020905b815481529060010190602001808311611aa657829003601f168201915b5050505050815260200160068481548110611b07577f4e487b7100000000000000000000000000000000000000000000000000000000600052603260045260246000fd5b906000526020600020906006020160030154815260200160068481548110611b58577f4e487b7100000000000000000000000000000000000000000000000000000000600052603260045260246000fd5b906000526020600020906006020160040154815260200160068481548110611ba9577f4e487b7100000000000000000000000000000000000000000000000000000000600052603260045260246000fd5b906000526020600020906006020160050154815250600d6000838152602001908152602001600020600082015181600001556020820151816001019080519060200190611bf7929190612d37565b506040820151816002019080519060200190611c14929190612d37565b50606082015181600301556080820151816004015560a08201518160050155905050611c596040518060600160405280602e8152602001614c05602e91398284612876565b80600e60003373ffffffffffffffffffffffffffffffffffffffff1673ffffffffffffffffffffffffffffffffffffffff16815260200190815260200160002081905550611ca7600c611d88565b7f4bc303fd457a97b4691b9af582ce71868a3d258638c8d4f8c60988a0f0bfb8cd338284604051611cda93929190613a27565b60405180910390a15050565b611d8284848484604051602401611d009493929190613abd565b6040516020818303038152906040527f8d142cdd000000000000000000000000000000000000000000000000000000007bffffffffffffffffffffffffffffffffffffffffffffffffffffffff19166020820180517bffffffffffffffffffffffffffffffffffffffffffffffffffffffff8381831617835250505050612915565b50505050565b6001816000016000828254019250508190555050565b60007f01ffc9a7000000000000000000000000000000000000000000000000000000007bffffffffffffffffffffffffffffffffffffffffffffffffffffffff1916827bffffffffffffffffffffffffffffffffffffffffffffffffffffffff1916149050919050565b60008073ffffffffffffffffffffffffffffffffffffffff166002600084815260200190815260200160002060009054906101000a900473ffffffffffffffffffffffffffffffffffffffff1673ffffffffffffffffffffffffffffffffffffffff1614159050919050565b600033905090565b816004600083815260200190815260200160002060006101000a81548173ffffffffffffffffffffffffffffffffffffffff021916908373ffffffffffffffffffffffffffffffffffffffff160217905550808273ffffffffffffffffffffffffffffffffffffffff16611eef83610bb9565b73ffffffffffffffffffffffffffffffffffffffff167f8c5be1e5ebec7d5bd14f71427d1e84f3dd0314c0f7b2291e5b200ac8c7c3b92560405160405180910390a45050565b6000611f4082611e08565b611f7f576040517f08c379a0000000000000000000000000000000000000000000000000000000008152600401611f7690613cf9565b60405180910390fd5b6000611f8a83610bb9565b90508073ffffffffffffffffffffffffffffffffffffffff168473ffffffffffffffffffffffffffffffffffffffff161480611fcc5750611fcb818561185e565b5b8061200a57508373ffffffffffffffffffffffffffffffffffffffff16611ff284610621565b73ffffffffffffffffffffffffffffffffffffffff16145b91505092915050565b8273ffffffffffffffffffffffffffffffffffffffff1661203382610bb9565b73ffffffffffffffffffffffffffffffffffffffff1614612089576040517f08c379a000000000000000000000000000000000000000000000000000000000815260040161208090613c59565b60405180910390fd5b600073ffffffffffffffffffffffffffffffffffffffff168273ffffffffffffffffffffffffffffffffffffffff1614156120f9576040517f08c379a00000000000000000000000000000000000000000000000000000000081526004016120f090613cb9565b60405180910390fd5b61210483838361293e565b61210f600082611e7c565b6001600360008573ffffffffffffffffffffffffffffffffffffffff1673ffffffffffffffffffffffffffffffffffffffff168152602001908152602001600020600082825461215f9190614165565b925050819055506001600360008473ffffffffffffffffffffffffffffffffffffffff1673ffffffffffffffffffffffffffffffffffffffff16815260200190815260200160002060008282546121b69190614084565b92505081905550816002600083815260200190815260200160002060006101000a81548173ffffffffffffffffffffffffffffffffffffffff021916908373ffffffffffffffffffffffffffffffffffffffff160217905550808273ffffffffffffffffffffffffffffffffffffffff168473ffffffffffffffffffffffffffffffffffffffff167fddf252ad1be2c89b69c2b068fc378daa952ba7f163c4a11628f55a4df523b3ef60405160405180910390a4612275838383612943565b505050565b8173ffffffffffffffffffffffffffffffffffffffff168373ffffffffffffffffffffffffffffffffffffffff1614156122e9576040517f08c379a00000000000000000000000000000000000000000000000000000000081526004016122e090613cd9565b60405180910390fd5b80600560008573ffffffffffffffffffffffffffffffffffffffff1673ffffffffffffffffffffffffffffffffffffffff16815260200190815260200160002060008473ffffffffffffffffffffffffffffffffffffffff1673ffffffffffffffffffffffffffffffffffffffff16815260200190815260200160002060006101000a81548160ff0219169083151502179055508173ffffffffffffffffffffffffffffffffffffffff168373ffffffffffffffffffffffffffffffffffffffff167f17307eab39ab6107e8899845ad3d59bd9653f200f220920489ca2b5937696c31836040516123da9190613a80565b60405180910390a3505050565b6123f2848484612013565b6123fe84848484612948565b61243d576040517f08c379a000000000000000000000000000000000000000000000000000000000815260040161243490613c39565b60405180910390fd5b50505050565b6060600082141561248b576040518060400160405280600181526020017f300000000000000000000000000000000000000000000000000000000000000081525090506125eb565b600082905060005b600082146124bd5780806124a6906142b2565b915050600a826124b691906140da565b9150612493565b60008167ffffffffffffffff8111156124ff577f4e487b7100000000000000000000000000000000000000000000000000000000600052604160045260246000fd5b6040519080825280601f01601f1916602001820160405280156125315781602001600182028036833780820191505090505b5090505b600085146125e45760018261254a9190614165565b9150600a8561255991906142fb565b60306125659190614084565b60f81b8183815181106125a1577f4e487b7100000000000000000000000000000000000000000000000000000000600052603260045260246000fd5b60200101907effffffffffffffffffffffffffffffffffffffffffffffffffffffffffffff1916908160001a905350600a856125dd91906140da565b9450612535565b8093505050505b919050565b6060600082519050600081141561261957604051806020016040528060008152509150506127a9565b6000600360028361262a9190614084565b61263491906140da565b6004612640919061410b565b905060006020826126519190614084565b67ffffffffffffffff811115612690577f4e487b7100000000000000000000000000000000000000000000000000000000600052604160045260246000fd5b6040519080825280601f01601f1916602001820160405280156126c25781602001600182028036833780820191505090505b5090506000604051806060016040528060408152602001614b9d604091399050600181016020830160005b868110156127665760038101905062ffffff818a015116603f8160121c168401518060081b905060ff603f83600c1c1686015116810190508060081b905060ff603f8360061c1686015116810190508060081b905060ff603f831686015116810190508060e01b905080845260048401935050506126ed565b50600386066001811461278057600281146127905761279b565b613d3d60f01b600283035261279b565b603d60f81b60018303525b508484525050819450505050505b919050565b61284682826040516024016127c4929190613bcb565b6040516020818303038152906040527f9710a9d0000000000000000000000000000000000000000000000000000000007bffffffffffffffffffffffffffffffffffffffffffffffffffffffff19166020820180517bffffffffffffffffffffffffffffffffffffffffffffffffffffffff8381831617835250505050612915565b5050565b600081600001549050919050565b612872828260405180602001604052806000815250612adf565b5050565b61291083838360405160240161288e93929190613bfb565b6040516020818303038152906040527f969cdd03000000000000000000000000000000000000000000000000000000007bffffffffffffffffffffffffffffffffffffffffffffffffffffffff19166020820180517bffffffffffffffffffffffffffffffffffffffffffffffffffffffff8381831617835250505050612915565b505050565b60008151905060006a636f6e736f6c652e6c6f679050602083016000808483855afa5050505050565b505050565b505050565b60006129698473ffffffffffffffffffffffffffffffffffffffff16612b3a565b15612ad2578373ffffffffffffffffffffffffffffffffffffffff1663150b7a02612992611e74565b8786866040518563ffffffff1660e01b81526004016129b494939291906139db565b602060405180830381600087803b1580156129ce57600080fd5b505af19250505080156129ff57506040513d601f19601f820116820180604052508101906129fc9190613148565b60015b612a82573d8060008114612a2f576040519150601f19603f3d011682016040523d82523d6000602084013e612a34565b606091505b50600081511415612a7a576040517f08c379a0000000000000000000000000000000000000000000000000000000008152600401612a7190613c39565b60405180910390fd5b805181602001fd5b63150b7a0260e01b7bffffffffffffffffffffffffffffffffffffffffffffffffffffffff1916817bffffffffffffffffffffffffffffffffffffffffffffffffffffffff191614915050612ad7565b600190505b949350505050565b612ae98383612b5d565b612af66000848484612948565b612b35576040517f08c379a0000000000000000000000000000000000000000000000000000000008152600401612b2c90613c39565b60405180910390fd5b505050565b6000808273ffffffffffffffffffffffffffffffffffffffff163b119050919050565b600073ffffffffffffffffffffffffffffffffffffffff168273ffffffffffffffffffffffffffffffffffffffff161415612bcd576040517f08c379a0000000000000000000000000000000000000000000000000000000008152600401612bc490613db9565b60405180910390fd5b612bd681611e08565b15612c16576040517f08c379a0000000000000000000000000000000000000000000000000000000008152600401612c0d90613c99565b60405180910390fd5b612c226000838361293e565b6001600360008473ffffffffffffffffffffffffffffffffffffffff1673ffffffffffffffffffffffffffffffffffffffff1681526020019081526020016000206000828254612c729190614084565b92505081905550816002600083815260200190815260200160002060006101000a81548173ffffffffffffffffffffffffffffffffffffffff021916908373ffffffffffffffffffffffffffffffffffffffff160217905550808273ffffffffffffffffffffffffffffffffffffffff16600073ffffffffffffffffffffffffffffffffffffffff167fddf252ad1be2c89b69c2b068fc378daa952ba7f163c4a11628f55a4df523b3ef60405160405180910390a4612d3360008383612943565b5050565b828054612d439061424f565b90600052602060002090601f016020900481019282612d655760008555612dac565b82601f10612d7e57805160ff1916838001178555612dac565b82800160010185558215612dac579182015b82811115612dab578251825591602001919060010190612d90565b5b509050612db99190612e22565b5090565b6040518060a0016040528060608152602001606081526020016000815260200160008152602001600081525090565b6040518060c001604052806000815260200160608152602001606081526020016000815260200160008152602001600081525090565b5b80821115612e3b576000816000905550600101612e23565b5090565b6000612e52612e4d84613f95565b613f70565b905082815260208101848484011115612e6a57600080fd5b612e7584828561420d565b509392505050565b6000612e90612e8b84613fc6565b613f70565b905082815260208101848484011115612ea857600080fd5b612eb384828561420d565b509392505050565b600081359050612eca81614b1b565b92915050565b600081359050612edf81614b32565b92915050565b600081359050612ef481614b49565b92915050565b600081519050612f0981614b49565b92915050565b600082601f830112612f2057600080fd5b8135612f30848260208601612e3f565b91505092915050565b600082601f830112612f4a57600080fd5b8135612f5a848260208601612e7d565b91505092915050565b600081359050612f7281614b60565b92915050565b600060208284031215612f8a57600080fd5b6000612f9884828501612ebb565b91505092915050565b60008060408385031215612fb457600080fd5b6000612fc285828601612ebb565b9250506020612fd385828601612ebb565b9150509250929050565b600080600060608486031215612ff257600080fd5b600061300086828701612ebb565b935050602061301186828701612ebb565b925050604061302286828701612f63565b9150509250925092565b6000806000806080858703121561304257600080fd5b600061305087828801612ebb565b945050602061306187828801612ebb565b935050604061307287828801612f63565b925050606085013567ffffffffffffffff81111561308f57600080fd5b61309b87828801612f0f565b91505092959194509250565b600080604083850312156130ba57600080fd5b60006130c885828601612ebb565b92505060206130d985828601612ed0565b9150509250929050565b600080604083850312156130f657600080fd5b600061310485828601612ebb565b925050602061311585828601612f63565b9150509250929050565b60006020828403121561313157600080fd5b600061313f84828501612ee5565b91505092915050565b60006020828403121561315a57600080fd5b600061316884828501612efa565b91505092915050565b6000806000806080858703121561318757600080fd5b600085013567ffffffffffffffff8111156131a157600080fd5b6131ad87828801612f39565b945050602085013567ffffffffffffffff8111156131ca57600080fd5b6131d687828801612f39565b93505060406131e787828801612f63565b92505060606131f887828801612f63565b91505092959194509250565b60006020828403121561321657600080fd5b600061322484828501612f63565b91505092915050565b600061323983836137bb565b905092915050565b61324a81614199565b82525050565b600061325b82614007565b6132658185614035565b93508360208202850161327785613ff7565b8060005b858110156132b35784840389528151613294858261322d565b945061329f83614028565b925060208a0199505060018101905061327b565b50829750879550505050505092915050565b6132ce816141ab565b82525050565b60006132df82614012565b6132e98185614046565b93506132f981856020860161421c565b613302816143e8565b840191505092915050565b60006133188261401d565b6133228185614057565b935061333281856020860161421c565b61333b816143e8565b840191505092915050565b60006133518261401d565b61335b8185614068565b935061336b81856020860161421c565b613374816143e8565b840191505092915050565b600061338a8261401d565b6133948185614079565b93506133a481856020860161421c565b80840191505092915050565b60006133bd600b83614079565b91506133c8826143f9565b600b82019050919050565b60006133e0603283614068565b91506133eb82614422565b604082019050919050565b6000613403602583614068565b915061340e82614471565b604082019050919050565b6000613426602883614068565b9150613431826144c0565b604082019050919050565b6000613449601c83614068565b91506134548261450f565b602082019050919050565b600061346c600e83614079565b915061347782614538565b600e82019050919050565b600061348f602483614068565b915061349a82614561565b604082019050919050565b60006134b2601983614068565b91506134bd826145b0565b602082019050919050565b60006134d5602c83614068565b91506134e0826145d9565b604082019050919050565b60006134f8602383614068565b915061350382614628565b604082019050919050565b600061351b603883614068565b915061352682614677565b604082019050919050565b600061353e602a83614068565b9150613549826146c6565b604082019050919050565b6000613561602983614068565b915061356c82614715565b604082019050919050565b6000613584602d83614068565b915061358f82614764565b604082019050919050565b60006135a7600483614079565b91506135b2826147b3565b600482019050919050565b60006135ca602083614068565b91506135d5826147dc565b602082019050919050565b60006135ed602c83614068565b91506135f882614805565b604082019050919050565b6000613610600a83614079565b915061361b82614854565b600a82019050919050565b6000613633602a83614068565b915061363e8261487d565b604082019050919050565b6000613656602183614068565b9150613661826148cc565b604082019050919050565b6000613679601d83614079565b91506136848261491b565b601d82019050919050565b600061369c606983614079565b91506136a782614944565b606982019050919050565b60006136bf603183614068565b91506136ca826149df565b604082019050919050565b60006136e2602f83614068565b91506136ed82614a2e565b604082019050919050565b6000613705603d83614079565b915061371082614a7d565b603d82019050919050565b6000613728602d83614079565b915061373382614acc565b602d82019050919050565b600060a083016000830151848203600086015261375b828261330d565b91505060208301518482036020860152613775828261330d565b915050604083015161378a60408601826138db565b50606083015161379d60608601826138db565b5060808301516137b060808601826138db565b508091505092915050565b600060c0830160008301516137d360008601826138db565b50602083015184820360208601526137eb828261330d565b91505060408301518482036040860152613805828261330d565b915050606083015161381a60608601826138db565b50608083015161382d60808601826138db565b5060a083015161384060a08601826138db565b508091505092915050565b600060c08301600083015161386360008601826138db565b506020830151848203602086015261387b828261330d565b91505060408301518482036040860152613895828261330d565b91505060608301516138aa60608601826138db565b5060808301516138bd60808601826138db565b5060a08301516138d060a08601826138db565b508091505092915050565b6138e481614203565b82525050565b6138f381614203565b82525050565b600061390482613603565b9150613910828961337f565b915061391b826133b0565b9150613927828861337f565b91506139328261368f565b915061393e828761337f565b9150613949826136f8565b9150613955828661337f565b91506139608261345f565b915061396c828561337f565b91506139778261371b565b9150613983828461337f565b915061398e8261359a565b9150819050979650505050505050565b60006139a98261366c565b91506139b5828461337f565b915081905092915050565b60006020820190506139d56000830184613241565b92915050565b60006080820190506139f06000830187613241565b6139fd6020830186613241565b613a0a60408301856138ea565b8181036060830152613a1c81846132d4565b905095945050505050565b6000606082019050613a3c6000830186613241565b613a4960208301856138ea565b613a5660408301846138ea565b949350505050565b60006020820190508181036000830152613a788184613250565b905092915050565b6000602082019050613a9560008301846132c5565b92915050565b60006020820190508181036000830152613ab58184613346565b905092915050565b60006080820190508181036000830152613ad78187613346565b90508181036020830152613aeb8186613346565b9050613afa60408301856138ea565b8181036060830152613b0c8184613346565b905095945050505050565b60006080820190508181036000830152613b318187613346565b90508181036020830152613b458186613346565b9050613b5460408301856138ea565b613b6160608301846138ea565b95945050505050565b600060a0820190508181036000830152613b848188613346565b90508181036020830152613b988187613346565b9050613ba760408301866138ea565b613bb460608301856138ea565b613bc160808301846138ea565b9695505050505050565b60006040820190508181036000830152613be58185613346565b9050613bf460208301846138ea565b9392505050565b60006060820190508181036000830152613c158186613346565b9050613c2460208301856138ea565b613c3160408301846138ea565b949350505050565b60006020820190508181036000830152613c52816133d3565b9050919050565b60006020820190508181036000830152613c72816133f6565b9050919050565b60006020820190508181036000830152613c9281613419565b9050919050565b60006020820190508181036000830152613cb28161343c565b9050919050565b60006020820190508181036000830152613cd281613482565b9050919050565b60006020820190508181036000830152613cf2816134a5565b9050919050565b60006020820190508181036000830152613d12816134c8565b9050919050565b60006020820190508181036000830152613d32816134eb565b9050919050565b60006020820190508181036000830152613d528161350e565b9050919050565b60006020820190508181036000830152613d7281613531565b9050919050565b60006020820190508181036000830152613d9281613554565b9050919050565b60006020820190508181036000830152613db281613577565b9050919050565b60006020820190508181036000830152613dd2816135bd565b9050919050565b60006020820190508181036000830152613df2816135e0565b9050919050565b60006020820190508181036000830152613e1281613626565b9050919050565b60006020820190508181036000830152613e3281613649565b9050919050565b60006020820190508181036000830152613e52816136b2565b9050919050565b60006020820190508181036000830152613e72816136d5565b9050919050565b60006020820190508181036000830152613e93818461373e565b905092915050565b60006020820190508181036000830152613eb5818461384b565b905092915050565b6000602082019050613ed260008301846138ea565b92915050565b600060c082019050613eed60008301896138ea565b8181036020830152613eff8188613346565b90508181036040830152613f138187613346565b9050613f2260608301866138ea565b613f2f60808301856138ea565b613f3c60a08301846138ea565b979650505050505050565b6000604082019050613f5c60008301856138ea565b613f6960208301846138ea565b9392505050565b6000613f7a613f8b565b9050613f868282614281565b919050565b6000604051905090565b600067ffffffffffffffff821115613fb057613faf6143b9565b5b613fb9826143e8565b9050602081019050919050565b600067ffffffffffffffff821115613fe157613fe06143b9565b5b613fea826143e8565b9050602081019050919050565b6000819050602082019050919050565b600081519050919050565b600081519050919050565b600081519050919050565b6000602082019050919050565b600082825260208201905092915050565b600082825260208201905092915050565b600082825260208201905092915050565b600082825260208201905092915050565b600081905092915050565b600061408f82614203565b915061409a83614203565b9250827fffffffffffffffffffffffffffffffffffffffffffffffffffffffffffffffff038211156140cf576140ce61432c565b5b828201905092915050565b60006140e582614203565b91506140f083614203565b925082614100576140ff61435b565b5b828204905092915050565b600061411682614203565b915061412183614203565b9250817fffffffffffffffffffffffffffffffffffffffffffffffffffffffffffffffff048311821515161561415a5761415961432c565b5b828202905092915050565b600061417082614203565b915061417b83614203565b92508282101561418e5761418d61432c565b5b828203905092915050565b60006141a4826141e3565b9050919050565b60008115159050919050565b60007fffffffff0000000000000000000000000000000000000000000000000000000082169050919050565b600073ffffffffffffffffffffffffffffffffffffffff82169050919050565b6000819050919050565b82818337600083830152505050565b60005b8381101561423a57808201518184015260208101905061421f565b83811115614249576000848401525b50505050565b6000600282049050600182168061426757607f821691505b6020821081141561427b5761427a61438a565b5b50919050565b61428a826143e8565b810181811067ffffffffffffffff821117156142a9576142a86143b9565b5b80604052505050565b60006142bd82614203565b91507fffffffffffffffffffffffffffffffffffffffffffffffffffffffffffffffff8214156142f0576142ef61432c565b5b600182019050919050565b600061430682614203565b915061431183614203565b9250826143215761432061435b565b5b828206905092915050565b7f4e487b7100000000000000000000000000000000000000000000000000000000600052601160045260246000fd5b7f4e487b7100000000000000000000000000000000000000000000000000000000600052601260045260246000fd5b7f4e487b7100000000000000000000000000000000000000000000000000000000600052602260045260246000fd5b7f4e487b7100000000000000000000000000000000000000000000000000000000600052604160045260246000fd5b6000601f19601f8301169050919050565b7f202d2d204e465420233a20000000000000000000000000000000000000000000600082015250565b7f4552433732313a207472616e7366657220746f206e6f6e20455243373231526560008201527f63656976657220696d706c656d656e7465720000000000000000000000000000602082015250565b7f4552433732313a207472616e736665722066726f6d20696e636f72726563742060008201527f6f776e6572000000000000000000000000000000000000000000000000000000602082015250565b7f4572726f723a20626f7373206d757374206861766520485020746f206174746160008201527f636b20626f73732e000000000000000000000000000000000000000000000000602082015250565b7f4552433732313a20746f6b656e20616c7265616479206d696e74656400000000600082015250565b7f2c20226d61785f76616c7565223a000000000000000000000000000000000000600082015250565b7f4552433732313a207472616e7366657220746f20746865207a65726f2061646460008201527f7265737300000000000000000000000000000000000000000000000000000000602082015250565b7f4552433732313a20617070726f766520746f2063616c6c657200000000000000600082015250565b7f4552433732313a206f70657261746f7220717565727920666f72206e6f6e657860008201527f697374656e7420746f6b656e0000000000000000000000000000000000000000602082015250565b7f6368617261637465724870206d757374206265206c657373207468616e20333060008201527f3021210000000000000000000000000000000000000000000000000000000000602082015250565b7f4552433732313a20617070726f76652063616c6c6572206973206e6f74206f7760008201527f6e6572206e6f7220617070726f76656420666f7220616c6c0000000000000000602082015250565b7f4552433732313a2062616c616e636520717565727920666f7220746865207a6560008201527f726f206164647265737300000000000000000000000000000000000000000000602082015250565b7f4552433732313a206f776e657220717565727920666f72206e6f6e657869737460008201527f656e7420746f6b656e0000000000000000000000000000000000000000000000602082015250565b7f4572726f723a20636861726163746572206d757374206861766520485020746f60008201527f2061747461636b20626f73732e00000000000000000000000000000000000000602082015250565b7f7d205d7d00000000000000000000000000000000000000000000000000000000600082015250565b7f4552433732313a206d696e7420746f20746865207a65726f2061646472657373600082015250565b7f4552433732313a20617070726f76656420717565727920666f72206e6f6e657860008201527f697374656e7420746f6b656e0000000000000000000000000000000000000000602082015250565b7f7b226e616d65223a202200000000000000000000000000000000000000000000600082015250565b7f63686172616374657241747461636b446d67206d757374206265206c6573732060008201527f7468616e20323030212100000000000000000000000000000000000000000000602082015250565b7f4552433732313a20617070726f76616c20746f2063757272656e74206f776e6560008201527f7200000000000000000000000000000000000000000000000000000000000000602082015250565b7f646174613a6170706c69636174696f6e2f6a736f6e3b6261736536342c000000600082015250565b7f222c20226465736372697074696f6e223a20225468697320697320616e204e4660008201527f542074686174206c6574732070656f706c6520706c617920696e20746865206760208201527f616d65204d657461766572736520536c6179657221222c2022696d616765223a60408201527f2022697066733a2f2f0000000000000000000000000000000000000000000000606082015250565b7f4552433732313a207472616e736665722063616c6c6572206973206e6f74206f60008201527f776e6572206e6f7220617070726f766564000000000000000000000000000000602082015250565b7f74686973206d6574686f64206d7573742062652063616c6c6564206279206f7760008201527f6e65722773206164647265737321210000000000000000000000000000000000602082015250565b7f222c202261747472696275746573223a205b207b202274726169745f7479706560008201527f223a20224865616c746820506f696e7473222c202276616c7565223a20000000602082015250565b7f7d2c207b202274726169745f74797065223a202241747461636b2044616d616760008201527f65222c202276616c7565223a2000000000000000000000000000000000000000602082015250565b614b2481614199565b8114614b2f57600080fd5b50565b614b3b816141ab565b8114614b4657600080fd5b50565b614b52816141b7565b8114614b5d57600080fd5b50565b614b6981614203565b8114614b7457600080fd5b5056fe506c617965722061747461636b656420626f73732e204e657720626f73732068703a2025734142434445464748494a4b4c4d4e4f505152535455565758595a6162636465666768696a6b6c6d6e6f707172737475767778797a303132333435363738392b2f426f73732061747461636b656420706c617965722e204e657720706c617965722068703a2025730a4d696e746564204e465420772f20746f6b656e496420257320616e6420636861726163746572496e646578202573a2646970667358221220d3a0e5e127bb64e2cf264f99426d9d0ba4e74bea0385c31fd8d7ceb9497eefcf64736f6c63430008040033446f6e6520696e697469616c697a696e6720257320772f2048502025732c20696d67202573446f6e6520696e697469616c697a696e6720626f737320257320772f2048502025732c20696d67202573",
  "linkReferences": {},
  "deployedLinkReferences": {}
}